:1000000000970002000F0000FABC00000000000092
:1000100000000000000000000000000000000000E0
:1000200078FFE4B8200118F6D8F99000007F007E30
:1000300007E4F0A3DFFCDEFA7581070235F8CBEFA9
:10004000CBEBD3940D501E121171E0701812117188
:100050007401F0120E8D1210F62435F582E434028C
:10006000F583120E0B22D2AF0032000228D975B2EE
:100070008E75B6F9E4F5B743B20143AA01023EA179
:1000800000000002385A904006E493B4180200229F
:1000900053A87F0080FD0000000000020846020B0C
:1000A000C6E86480F8E933E83360110460F0ED33AA
:1000B000EC337009E8FCE9FDEAFEEBFF220460DEA8
:1000C000D3EB9FEA9EE99DE8C2E78CF0C2F795F07A
:1000D000400CE8CCF8E9CDF9EACEFAEBCFFB120BF5
:1000E0009185D0F05804700320D5B3E80470075010
:1000F00002B2D5020BD092D5EC0460F7E4CCC0E09C
:10010000C398F8603B94186008400DD0E0FB020BE8
:10011000A8E4FBFAC9FC8028E830E406E4C9FBE463
:10012000CAFCE830E305E4C9CACBFCE85407601018
:10013000F8C3E913F9EA13FAEB13FBEC13FCD8F15B
:1001400030F52FC3E49CFCEF9BFFEE9AFEED99FD8A
:10015000D0E0FBEF4E4D4C701222DB03020BCDECD6
:100160002CFCEF33FFEE33FEED33FDED30E7EB0219
:100170000BA8EF2BFFEE3AFEED39FDD0E0FB50135C
:100180000BBB0003020BD0ED13FDEE13FEEF13FFCC
:10019000EC13FC020BA8EC4D6011E8497017ED332D
:1001A000EC3304600DE4FCFFFEFD22E933E8330488
:1001B00070F8020BC6120B9158046009E4CC24813C
:1001C0005006285009020BD0284003020BCDC0E096
:1001D000EB4A7044B98006D0E0FB020BBCEF4E70D6
:1001E0001CBD8008EBFFEAFEE9FD80EBE98DF0A481
:1001F000FEE5F0020A5FE9CDF9EAFEEBFFEF89F0D8
:10020000A4FCE5F0CE89F0A42EFFE435F0CD89F012
:10021000A42DFEE435F08067EF4E7005BD80D780D9
:10022000C3EF8BF0A4ACF0EE8BF0A42CFCE435F023
:10023000F8EF8AF0A42CE5F038FCE433CB8DF0A481
:100240002CFCE5F03BF8EE8AF0A42CFCE5F038F845
:10025000E433CF89F0A42CFCE5F038CF3400CE890C
:10026000F0A42FFFE5F03EFEE433C98DF0A42EFE8E
:10027000E5F039CD8AF0A42FFFE5F03EFEE43DFD28
:1002800033D0E0FB50070BBB000F020BD0EC2CFC73
:10029000EF33FFEE33FEED33FD020BA8020BD0EC83
:1002A0005D046005E859047003020BC6120B9158F7
:1002B0000460F6EC4860F2EC7004FDFEFF22C860BA
:1002C000DB2481C85009C39860025006020BCD9808
:1002D00050CAF582E9294B4A7005AB82020BBC7506
:1002E000F0007C1A7880C3EF9BEE9AED99400DC325
:1002F000EF9BFFEE9AFEED99FDE842F0DC23ACF0B7
:10030000D0E0FFD0E0FED0E0FDAB8220E7101BEB99
:1003100060BAEC2CFCEF33FFEE33FEED33FD020B45
:10032000A8E803F830E705C0F075F000EF2FFFEE06
:1003300033FEED33FD40B830E7C280AA75F020806F
:100340000E75F010800575F0087D007E007F00338B
:1003500092D530D503120DD6EC334010EF33FFEEBB
:1003600033FEED33FDEC33FCD5F0ED22E5F0247ED9
:10037000A2D513CC92E7CDCEFF22EDD2E7CD33EC60
:100380003392D524814006E4FFFEFDFC22FCE4CF3D
:10039000CECDCC24E0501174FF80EDC3CC13CCCD76
:1003A00013CDCE13CECF13CF0470F030D5DE020DB7
:1003B000D6E9D2E7C933E833F892D5EDD2E7CD33A9
:1003C000EC33FC5002B2D522EC30E7100FBF000C2A
:1003D0000EBE00080DBD00040BEB6014A2D5EB139C
:1003E000FCED92E7FD2274FFFCFDFEFF22E480F8A5
:1003F000A2D574FF13FC7D80E480EFBB01068982E7
:100400008A83E0225002E722BBFE02E32289828A2D
:1004100083E49322BB010CE58229F582E5833AF55A
:1004200083E0225006E92582F8E622BBFE06E92594
:1004300082F8E222E58229F582E5833AF583E493A6
:1004400022BB010689828A83F0225002F722BBFE7A
:1004500001F322F8BB010DE58229F582E5833AF527
:1004600083E8F0225006E92582C8F622BBFE05E9A2
:100470002582C8F222EF8DF0A4A8F0CF8CF0A4283A
:10048000CE8DF0A42EFE22BC000BBE0029EF8DF015
:1004900084FFADF022E4CCF875F008EF2FFFEE33C7
:1004A000FEEC33FCEE9DEC984005FCEE9DFE0FD576
:1004B000F0E9E4CEFD22EDF8F5F0EE8420D21CFE4A
:1004C000ADF075F008EF2FFFED33FD4007985006B3
:1004D000D5F0F222C398FD0FD5F0EA22C2D5EC3058
:1004E000E709B2D5E4C39DFDE49CFCEE30E715B20C
:1004F000D5E4C39FFFE49EFE120C67C3E49DFDE4B8
:100500009CFC8003120C6730D507C3E49FFFE49E78
:10051000FE22C5F0F8A3E028F0C5F0F8E5821582C8
:1005200070021583E038F02275F008758200EF2F15
:10053000FFEE33FECD33CDCC33CCC58233C5829BA9
:10054000ED9AEC99E58298400CF582EE9BFEED9ACF
:10055000FDEC99FC0FD5F0D6E4CEFBE4CDFAE4CC6B
:10056000F9A88222B800C1B90059BA002DEC8BF06D
:1005700084CFCECDFCE5F0CBF97818EF2FFFEE332A
:10058000FEED33FDEC33FCEB33FB10D70399400455
:10059000EB99FB0FD8E5E4F9FA227818EF2FFFEE7C
:1005A00033FEED33FDEC33FCC933C910D7059BE9AD
:1005B0009A4007EC9BFCE99AF90FD8E0E4C9FAE409
:1005C000CCFB2275F010EF2FFFEE33FEED33FDCCA8
:1005D00033CCC833C810D7079BEC9AE899400AED92
:1005E0009BFDEC9AFCE899F80FD5F0DAE4CDFBE43A
:1005F000CCFAE4C8F922C3E49FFFE49EFEE49DFD2B
:10060000E49CFC22EB9FF5F0EA9E42F0E99D42F06B
:10061000EC6480C864809845F022EB9FF5F0EA9E78
:1006200042F0E99D42F0E89C45F022ECF0A3EDF0A9
:10063000A3EEF0A3EFF022A8828583F0D083D082CE
:10064000120E2E120E2E120E2E120E2EE473E493A4
:10065000A3C583C5F0C583C8C582C8F0A3C583C53B
:10066000F0C583C8C582C822A42582F582E5F0358D
:1006700083F58322EF4E6012EF60010EEDBB010B9C
:1006800089828A83F0A3DFFCDEFA2289F05007F723
:1006900009DFFCA9F022BBFEFCF309DFFCA9F02274
:1006A000F583E0F8A3E0F9A3E0FAA3E0FB9002C130
:1006B000E0FCA3E0FDA3E0FEA3E02275F002120E31
:1006C0004875F087E0FCA3E0FDEFA4245CF582E52B
:1006D000F03400F5832275F002120E48E0FCA3E02E
:1006E000FD75F087EFA4246EF582E5F03400F58304
:1006F000EE75F002020E48903165C39BFBEE9AFA4C
:10070000ED99F9EC98F8E493FE740193FFE4FCFD95
:10071000C3020DFA75F087EEA424BFF582E5F0342C
:1007200000F583E5822FF582E43583F583E4F075E7
:10073000F087EEA424C8F582E5F03400F583E58265
:100740002FF582E43583F58322E0FEA3E0FF9003DA
:10075000E3E0FD75F002A42492F582E5F03400F5A3
:1007600083EE8FF0120CF275F002EDA42492F58264
:10077000E5F03400F58322EF2466FFEE34FEFE7CC4
:10078000007D0A120C557D32120C67EF249AFFEEA1
:100790003401FEEB75F002A42438F582E5F0340054
:1007A000F583229003D0E0FF75F087A42480F582C2
:1007B000E5F03400F5832275F002EBA4242CF582D9
:1007C000E5F03400F583E0FCA3E0FDEB75F002A456
:1007D0002426F582E5F03400F5832275F002EF124D
:1007E0000E48E0FCA3E0FDEE75F087A4246EF582D0
:1007F000E5F03400F583229003E3E0FD75F087A473
:1008000024A4F582E5F03400F583229003E3E0FFB1
:1008100075F087A4244AF582E5F03400F58322E4DC
:10082000900025F09002AFF09002E5E09002B0F069
:1008300054F0FFF022C39BFBEE9AFAED99F9EC9885
:10084000F8227420902EC9F07404902E4EF0902E51
:10085000C322EF75F002020E48FDECF0EDA3F07537
:10086000F002EBA42432F582E5F03400F583E0FCDD
:10087000A3E0FD22C3E0FDEF9D7480F86E9822E0B6
:100880004401F0E4900025F09002AF22902EC9744C
:1008900020F07484902E4FF0902EC322E0FEA3E04F
:1008A000C39DFFEE9C229003D0E025E024D2F58288
:1008B000E434032224F1F582E43401F58322900329
:1008C000E4E0FF9003E3E0FE75F087A424BFF58227
:1008D000E5F0340022CBEFCBEBD39403229003E37B
:1008E000E0FF24F4F582E43401F58322EB75F00295
:1008F000A4242CF582E5F03400F58322F583E493FB
:10090000FC740193FD75F002EFA42274F72EF582BA
:10091000E43401F58322FFEB25E025E022F583E4B2
:10092000F07F01229003EBE0FF24BFF582E4340066
:10093000F58322E0FEA3E0FFD322ECF0EDA3F090DC
:1009400003E4E004F022E0FCA3E0FD75F002229055
:1009500003E6E0FEA3E0FF229003E3E0FF75F087EB
:1009600022902EC97420F07404902E4FF0902EC364
:1009700022E04406F09000257401F022EE8FF01280
:100980000CF275F08722C28A9002E5E09002B0F086
:100990002274252BF582E43402F58322747C2BF536
:1009A00082E43402F5832274C82BF582E43402F524
:1009B000832274A02BF582E43402F58322740E2B7B
:1009C000F582E43402F58322740C2BF582E43400C2
:1009D000F5832274322BF582E43402F5832274B15C
:1009E0002BF582E43402F5832274032EF582E4347D
:1009F00002F58322902E4EF0902EC32275F002A4B1
:100A000024DFF582E5F0340122E4F5E2902EC07493
:100A1000C2F0E422EF25E024D8F582E434032290EA
:100A20002EC97428F022E4F0A3F075F00222F074CD
:100A3000C82FF582E43400F58322C3EF94F6EE6408
:100A400080947F22900202E0640122E49001FBF096
:100A5000900295F0229003EBE0FF75F002229003E4
:100A6000E3E0FF75F002229003E3E0FD75F08722DA
:100A7000E0FCA3E0FD75F08722902EC5F0902ECE0D
:100A8000F022F074F82EF582E43401F583E4F022CC
:100A90009002B0E09002E5F022FFE0FCA3E0FD222E
:100AA000E0FEA3E0C3941EEE6480948022E0FCA3E9
:100AB000E0C3941EEC6480948022F583ECF0A3EDF7
:100AC000F022940AEE648094802275F002EC020E0B
:100AD00048E4F0A3F075F087227F0B123ED2E49039
:100AE00002C7F022E0FEA3E0FF7C00020CBCE0FCA9
:100AF000A3E0FDEC22E0FAA3E0FB75F002EF229008
:100B00002EC97420F022A42470F582E5F03400226E
:100B1000E0FEA3E0FFC322F09001FCF0900296F00B
:100B2000229003E3EFF01211DCF583E0FEA3E078FE
:100B300003CEC313CE13D8F99003EAF0E4A3F090E8
:100B400003E5F09003E4F09003E4E0FFC394094070
:100B5000030214EFEF9003E870097404F0A3740625
:100B6000F080077404F02405A3F09003E3E0FF1283
:100B70000FC8C083C0829003E4E0FED082D083120D
:100B80000E9B120ED012107C9003E6F0A3EFF01231
:100B900010BDE0601A75F087EF120F4BC083C08262
:100BA0009003E4E0D082D083120ED1E4F0A3F012DF
:100BB000112F123F7C9003E8121054504312112F52
:100BC000121247120F4BC083C0829003E4E0FCD0A6
:100BD00082D083120ED112115C120F4AEC120ED188
:100BE000121113940FEE648094804003021461C3C9
:100BF000EF94F1EE6480947F40030214B102148DEF
:100C000012112F123F7C9003EA1210545004A3E0FB
:100C100004F012112FC394FCEE6480947F50069070
:100C200003E5E004F012122460030214B1123F7CC9
:100C30009003E9121054501E121138120EAAC083EC
:100C4000C0829003E4E0FED082D083120EB6ECF0B6
:100C5000A3EDF00214B112112F121247120F4BC064
:100C600083C0829003E4E0FCD082D083120ED112C4
:100C7000115C120F4AEC1210331211131212A2401F
:100C800027121247120F4BC083C0829003E4E0FC8E
:100C9000D082D083120ED1E4F0A3F0ED120FC8126F
:100CA00012AAE475F001802612121A50241211388B
:100CB000120F4BC083C0829003E4E0FED082D08349
:100CC000120ED1E4F0A3F0120EC174FFF5F0120C75
:100CD000F29003E3E0FF120FC8C083C0829003E4E8
:100CE000E0FED082D083120E9B120ED012107CFE3A
:100CF0009003E3E0120F88C083C0829003E4E0D049
:100D000082D083120ED1EEF0EF12111D02132712C2
:100D1000122470389003E3E0FF24031211CCE0703A
:100D20002B74032F1211CC7401F0E49003E4F01241
:100D30001138120EAAC083C0829003E4E0FED08274
:100D4000D083120EB612111AE0B409E39003E5E065
:100D5000C3940440379003E3E0FF123D4B9003E35C
:100D6000E0FF123A9CEF602CE49003E4F01211389B
:100D7000120EAAC083C0829003E4E0FED082D0832A
:100D8000120EB612111AE0B409E380089003E3E0F2
:100D9000FF123EF09003EBE0C3940440371210BD05
:100DA000E07031123D279003E3E0FF123BC1EF609A
:100DB0002BE49003E4F0121138120EAAC083C08213
:100DC0009003E4E0FED082D083120EB612111AE036
:100DD000B409E3229003E3E0FF123EE1221225B1C1
:100DE000E49003D0F0900024E0FF9003D0E0C39F94
:100DF0004003021849E0FF12108AF583E4F0A3F0E3
:100E00001211F4F583E4F0A3F09003DEF0A3F0A355
:100E1000F0A3F0A37409F0EF7003021840122082CF
:100E20009003D0E0FF121301E49003D1F09003D1BE
:100E3000E0FFC39409400302177512122460069064
:100E40000299E0601A900025E070149002AFE07003
:100E50000E9003D0E0120F88121032E4F0A3F0904D
:100E600003D1E0FF700302176C9003D0E0FE120F75
:100E700088121032E0FCA3E0C39406EC64809480F6
:100E8000501C75F087EE120F8BC083C0829003D187
:100E9000E0D082D083120ED1E4F0A3F08043120F91
:100EA00083C083C0829003D1E0FED082D083120E33
:100EB000D1E0FCA3E0C3940AEC64809480502275D6
:100EC000F087EFA42480F582E5F03400120ECEC046
:100ED00083C0827D021212C4D082D083EEF0A3EFD1
:100EE000F09003D0E0FF75F0871212E612104C125A
:100EF00011F4F583EC8DF0120CF2120F83C083C055
:100F0000829003D1E0D082D083120ED1121250EF22
:100F10001212E6F583E0FEA3E02DFFEE3CFE900307
:100F2000D0E0FD12108AF58312115CED120F8BC018
:100F300083C0829003D1E0D082D083120ED11212EE
:100F4000F09003DFE09FEE6480F89003DEE06480C1
:100F50009850129003D1E0FD9003DEEEF0A3EFF085
:100F60009003E2EDF09003D0E0120F88C083C082BE
:100F70009003D1E0D082D083120ED1E0FEA3E0FF37
:100F80009003E1E02FF09003E0E03EF09003D1E029
:100F900004F002160D9003DEE0FAA3E0FBC3900319
:100FA000E1E09BF09003E0E09AF07D071212C4901C
:100FB00003E0EEF0A3EFF0C3EB9FFFEA9EFED3EF5A
:100FC0009402EE64809480403DA3E064096037128F
:100FD0001086F583C083C082E0FEA3E0FF9003DEAD
:100FE000E0FCA3E0FDC3EF9DFFEE9CD082D083F038
:100FF000A3EFF09003E0E0FEA3E0FF121086F5837C
:10100000EE8FF0120CF29003D0E0FF12108A121053
:101010004CEF120FACECF0A3EDF09003D0E0FF1218
:1010200011F512104CEF1210CDECF0A3EDF090037F
:10103000F5E0602C9003D0E0B4010F120FACE0FF9C
:10104000A3E0900277CFF0A3EFF09003D0E0B402DA
:101050000F120FACE0FFA3E0900206CFF0A3EFF079
:101060009003D0E004F00215C5E49001FDF022E405
:101070009003D4F0FF12353B7F0112353B9003D231
:10108000E4F0A37404F0900365E014607C14700332
:101090000218FE1470030219531470030219EB14A2
:1010A0007003021A0024056003021ACD9003C912CE
:1010B0000E1700000000E49003B5F0A3F0A3120E99
:1010C00017000000009003ABE0FFA3E09003BBCF4C
:1010D000F0A3EFF09003ABE0FFA3E09003BDCFF0EF
:1010E000A3EFF0122827A3F0A3F09003A9E0FFA339
:1010F000E09003C7CFF0A3EFF0123F647F327E0091
:10110000123C8B9003657401F012282F123D01EF01
:101110007003021ACD121AD37402F0021ACD1227EC
:1011200047940AEE6480948040131228279003B2FB
:10113000E004F070139003B1E004F0800B1228CFAC
:10114000500612282712285112279C70069003B5CA
:10115000E004F0123D01EF7003021ACD12280012D4
:101160000D449003BBEEF0A3EFF09003657403F021
:10117000021ACD9003ABE0FEA3E024B4FFEE34FBF3
:10118000FE9003D0F0A3EFF0123F7CC3EF9403EE88
:10119000648094805025E49003B5F0A3F0A3120E70
:1011A000170000000012282F123F647F0A7E0012F1
:1011B0003C8B9003657404F0021ACD9003D0E0FEDE
:1011C000A3E0FF1227639405EE648094804014121C
:1011D0002827900368E024FFF0900367E034FFF0D5
:1011E000A38022C3EF94FBEE6480947F4003021A35
:1011F000CD122827900368E004F07006900367E0A2
:1012000004F090036812286E021ACD12282F123DA6
:1012100001EF7003021ACD121AD37405F0021ACD31
:10122000122747940AEE6480948040131228279076
:1012300003B2E004F070139003B1E004F0800B12ED
:1012400028CF500612282712285112279C7006908A
:1012500003B5E004F0123D01EF7003021ACD12282D
:1012600000120D449003BDEEF0A3EFF01227DFE46F
:10127000FBFAF978401209767BA07A70797678C209
:10128000120885120B5A9003C3EEF0A3EFF09003FF
:10129000BD1227E2ECC0E0EDC0E0EEC0E0EFC0E040
:1012A0009003C31227E2D0E0FBD0E0FAD0E0F9D0FF
:1012B000E0F8120976ECC0E0EDC0E0EEC0E0EFC06F
:1012C000E01227DF12287CD0E0FFD0E0FED0E0FD66
:1012D000D0E0FC120A7F120B5A9003C7EEF0A3EF86
:1012E000F09003657406F09003D47401F09003D479
:1012F000E0FF22123F647F057E00123C8B90036565
:10130000229003D0747EF0E4A3F0900024E0FE90DD
:1013100003D1E0FFC39E4003021CC3123BF9EF6000
:101320000312122B9003D1E0FA121094E060030232
:101330001B9E9003D1E0FF1211DC12104CEF120F34
:1013400074E0FEA3E0C39DEE9C404C9003D1E0907E
:1013500003D0F01210947401F09001FBE004F090BF
:101360000295F09003D1E0FF24F71210EE7401F023
:10137000123F0E9003D1E0FF123F1D9003D1E0FF1A
:10138000123DB79003D1E0FF123DFF9003D1E01270
:1013900010C27401F08012CFEACF123B12EF600945
:1013A0009003D1E01210C2E4F09003D1E0FF123CB0
:1013B0002EEF7003021CBAE49001FC021CB59003EE
:1013C000D1E0FF75F002A424EBF582E5F0340112C0
:1013D000104C75F002EF120F77E0FEA3E0C39DEE14
:1013E0009C5003021C7F9003D1E09003D0F0123B8D
:1013F0004DEF7003021CBAE4FF9003D1E0FE75F0DC
:1014000087120EAA120FBB121032ECF0A3EDF00FF0
:10141000EFB409E59003D1E0121094E4F0900025B8
:10142000E0FF70099002AFE07003021CD1EF601F73
:101430009002AFE06019120FFFBF2003D38001C3F9
:101440004005E49002B0F09002B0E044058048907E
:101450000025E0601F9002AFE07019121000BF205D
:1014600003D38001C34005E49002B0F09002B0E0E5
:1014700044018023900025E070779002AFE0607116
:10148000120FFFBF2003D38001C34005E49002B0D8
:10149000F09002B0E04404F09002E5F0C28A22909D
:1014A00003D1E0FF121094E4F0123F3B9003D1E02F
:1014B000FF123D939003D1E0FF123F2C9003D1E047
:1014C000FF123DDB9003D1E024F71210EE7401F01F
:1014D0009001FCE004F0900296F09003D1E004F05B
:1014E000021AEA9003D0E0FF900200E06F6002EF82
:1014F000F0229003EFE0603C9003F6E0FF7C00B444
:1015000020047D0480027D1C9003D2ECF0A3EDF05A
:10151000900366E004F0EFB42009E0D39405402B7B
:10152000008009900366E0D3941D401FE4F090030F
:10153000EFF080179003F6E07E00B420047F028075
:10154000027F0C9003D2EEF0A3EFF01227EBFE9097
:1015500003D0F0A3EFF0D3900292E09F900291E0CD
:101560009E40239003D0E0FEA3E0FF123F7CCCEE30
:10157000CCCDEFCD900291E0C313FEA3E013FFD3D7
:10158000ED9FEC9E500690036BE06013122FC81283
:101590002FCE122FC81227EB9003D0F0A3EFF090BC
:1015A00003D012276F9400EE648094804002800480
:1015B0007E007F00900370EEF0A3EFF090028DE0CC
:1015C0007013900370F0A3F0A3E0FFA3E090036C0E
:1015D000CFF0A3EFF090028CE0700690029FE060E5
:1015E00010122785E490028CF090029FF090020D7B
:1015F000F0900291E0FEA3E0FF900370E0FAA3E018
:10160000FBD39FEA9E405490037C7401F0A3120E1A
:101610001700000000E4900381F090036B04F09049
:1016200003A8E07018900373E02432FE900372E088
:1016300034009003A6F0A3CEF0A37401F0900298BA
:10164000E07016900208E0600690027F7401F0904E
:1016500002987401F090027BF08069900009E0FE2E
:10166000A3E0FFC3EB9FEA9E505A900364E004FF9F
:10167000F0C39003D3E09F7480F89003D2E06480BD
:10168000985046E4900364F090037CF0900372E07D
:10169000FFA3E09003A6CFF0A3EFF0E4A3F0900344
:1016A0006BE06002E4F0900298E0B4011C90020844
:1016B000E0600690027F7401F0E4900298F09002DE
:1016C0007BF08005E4900364F0022DE5902ECB744E
:1016D000F4F0E4FF7420121259902EC9F0902EC33A
:1016E0007480F0A37409F01211E9FDFCE5E220E238
:1016F0000B0DBD00010CBC07F3BDD0F0902ECEE465
:10170000F0902E1A1212D5120FF3EAF0A3EBF07438
:1017100040121259EFB401071210227440805AEFA0
:10172000B4020D1212DF748212102A7490021F800C
:10173000EFB4030F902EC97431F074061211D474F3
:10174000208036EFB404101212DF902E4E7484F015
:10175000902EC374508049EFB4050C1210227460AF
:10176000F0A37409F0803EEFB406151211FF902E1D
:101770004E7409F0902EC37470F0A3740AF08025A3
:10178000EFB407111211FF74821211D47430F0A358
:101790007406F08010EFB4080C742A121024743010
:1017A000F0A37408F01211E9FCFDE5E220E20B0D54
:1017B000BD00010CBC07F3BDD0F0902ECEE4F0903C
:1017C0002E1C1212D5A424D1F582E5F03400F58345
:1017D000EAF0A3EBF0902EC57480F0902ECEF0EFDF
:1017E000B4010D1212DF74821210747440022023AF
:1017F000EFB402028014EFB4030C1211FF7409124B
:1018000011497450803DEFB4040712106C7430809D
:1018100019EFB4050C12106C7470F0A37409F08009
:1018200037EFB4060C1211417440F0A37407F08036
:1018300027EFB407151211FF902E4F7482F0902EEF
:10184000C37460F0A37408F0800EEFB4080A12119C
:101850004174E0F0A37406F01211E9FCFDE5E2200A
:10186000E20B0DBD00010CBC07F3BDD0F0902ECEF5
:10187000E4F0902EC5F0902E1EE0FCA3E0FD75F084
:1018800002EFA42458F582E5F03401F583ECF0A3CF
:10189000EDF00FEF64096003021EB49001FD7401C6
:1018A000F0229003E3EFF09003E77404F0E4900378
:1018B000E4F09003E4E0FFC394094003022252EFF6
:1018C000603D1212247038120FEBC083C082900367
:1018D000E4E0FED082D083120E9B120ED0ECF0A377
:1018E000EDF09003E3E0120FDCC083C0829003E4CC
:1018F000E0D082D083120ED1E4F0A3F0022249900E
:1019000003E3E0FF75F087120EAAC083C082900344
:10191000E4E0FED082D083120ED1121250EFA42444
:101920004AF582E5F03400120ECE12107CFE9003D0
:10193000E5F0A3EFF0123F7C9003E7121054400350
:101940000221DE12109E120F1CE06401703075F04F
:1019500087EE120F8B1210321212804003022226E1
:10196000120FEBC083C0829003E4E0FED082D083EC
:10197000120E9B120ED0ECF0A3EDF0022226900383
:10198000E5E0FEA3E0FF120FD7C083C0829003E41E
:10199000E0FCD082D083120ED112115CED120FDF69
:1019A0001212AA1211131212A24023120FD7C083CF
:1019B000C0829003E4E0FCD082D083120ED11212D8
:1019C000B1ED120EAA1212AAE475F001802A1212C9
:1019D0001A50739003E3E0FF120FDCC083C08290C3
:1019E00003E4E0FED082D083120ED11212B1120EA7
:1019F000A9120ED074FFF5F0120CF2022226120F7B
:101A0000EBC083C0829003E4E0FED082D083120E4C
:101A10009B120ED0ECF0A3EDF09003E3120F86C002
:101A200083C0829003E4E0FED082D083120ED112F4
:101A3000128D401275F087EF1210ABF583E5822E00
:101A4000120F217401F012109E120F1CE06401703D
:101A500018120F0FE004120F0EE0D39405400A9005
:101A600003E4E0FF120EF4E4F09003E4E004F0027B
:101A7000209222E4FE900024E0FFEEC39F40030288
:101A800024011210EBE0640160030223FD74F12EC7
:101A9000121096E0FC6003022327EE6401704E12E0
:101AA0001008BF2003D38001C34005E49002B0F0CA
:101AB000900296E0FD6401701B900295E09002B0E8
:101AC000B40109E0440912106204801512105F127B
:101AD00012F78016ED9002B0B4020BE0440512102C
:101AE00062121262800412105FF0121270EE640231
:101AF00060030223F6121008BF2003D38001C34005
:101B000005E49002B0F0900296E0FD6401701C9034
:101B10000295E09002B0B40106121151E48021E078
:101B200044041210621212F70223F3ED9002B0B4D3
:101B30000205E044058003E04404F0E4900025F051
:101B40009002AFF00223F3EC640160030223F6EE8F
:101B500064017060121008BF2003D38001C34005E8
:101B6000E49002B0F0900295E0FFB4020B9002B056
:101B7000E0440A1211548013EF640170269001FCB6
:101B8000E09002B0B4010C121151E49002AF1212B5
:101B900062801EE04402121154E49002AFF012126F
:101BA0002C800E9002B0E04402121154E49002AF77
:101BB000F0121270EE6402705D121008BF2003D3A1
:101BC0008001C34005E49002B0F0900295E0B402B9
:101BD000139002B0E0440AF09002AF7401F090005C
:101BE00025F0802F9001FBE06401701C900296E0CC
:101BF0009002B0B40105E044098013E044081210DB
:101C00006204F012122B800B9002B0E04408121014
:101C10006204F01212701210EBE4F0C28A0E02227B
:101C2000557F0522900211E0600302249B04F0E43A
:101C3000FF900024E0FEEFC39E5047EF25E024B95B
:101C4000F582E434311210DC24E5F582E5F034014C
:101C500012129AEF25E02499F582E434311210DC57
:101C60001211E012129AEF25E024D9F582E4343102
:101C70001210DC24EBF582E5F0340112129A0F0207
:101C800024119001E1A3E09002E0F09001E3A3E0D1
:101C90009002E1F09002911212CE900310F0EDA3A9
:101CA000F09000091212CE900312F0EDA3F0900212
:101CB000791212CE900304F0EDA3F09002E0E0FF61
:101CC0007E009001E1E07003A3E06F60089001E105
:101CD000EEF0A3EFF09002E1E0FF7E009001E3E080
:101CE0007003A3E06F60089001E3EEF0A3EFF090C3
:101CF0000291E0FEA3E09002C51212796F7002EC2F
:101D00006E6008900291ECF0A3EDF0900009E0FE07
:101D1000A3E090020B1212796F7002EC6E600890D3
:101D20000009ECF0A3EDF0900279E0FEA3E0FF9053
:101D3000029AE0FCA3E0FD6F7002EC6E6008900276
:101D400079ECF0A3EDF09002DFE0B4AA031237A51E
:101D50009002F5E0FFB410089003F67410F0800ACA
:101D6000EFB420069003F67420F09002F8E0B4106F
:101D700007E4F090028C04F09002F9E07008A3E010
:101D8000B41003123900900303E0FFB4100BE49089
:101D9000028DF0900303F0800EEFB4200AE490036C
:101DA00003F090028D04F0900302E0FFB4100FE402
:101DB000900208F0900302F090029704F022EFB432
:101DC000200EE4900302F090020804F09002B4F0B8
:101DD00022E49003E4F0A3F09003E87403F02405F8
:101DE000A3F0122BA4E49003E3F09003E3E0FFC31D
:101DF000940940030226BF75F002EF120FCB1211B7
:101E000026120EA912107CFE9003E6F0A3EFF0124A
:101E10003F7C9003E812105450209003E5E004F05A
:101E2000A3120F291211131212A2400302266012EC
:101E3000121A40030226970226839003E4E004F07E
:101E400012122470729003E6E0FEA3E0FF123F7CC2
:101E50009003E9D3121055401512123E120EAA1229
:101E60001126EF120FCBECF0A3EDF00226979003B2
:101E7000E6120F291211139464EE648094804018C6
:101E80009003E3E0FD75F002120F4B121206ED1203
:101E90000FCBE475F001801CC3EF949CEE6480943A
:101EA0007F501412123E120F4B121206EF120FCB7C
:101EB00074FFF5F0120CF212123E120FCB12112623
:101EC000120EA912107CFE9003E3E075F002120FCF
:101ED0008BEEF0A3EFF09003E3E004F00225CA904C
:101EE00003E4E0C3940440028031C390010AE0940B
:101EF00004900109E0648094804026900191E09470
:101F000004900190E0648094804016900083E094F7
:101F100003900082E0648094804006900202740185
:101F2000F09003E5E0C394064037900202E0603190
:101F3000E4FF123D6FE4FF123AD7EF6029E490020C
:101F400002F09003EAF0900024E0FF9003EAE0FE44
:101F5000C39F50121211C9E4F09003EAE004F0802C
:101F6000E5E4FF123EFF229003B1E0FEA3E0FF9004
:101F700003ABE0FCA3E0C39FFFEC9EFE9003D0F018
:101F8000A3EFF09003AEE02FF09003ADE03EF0E061
:101F9000FEA3E0FFD3222FFFEC3EFEE0FCA3E02FE8
:101FA000FFEC3EFE22E4900370F0A3F090036CE09F
:101FB000FFA3E0CF900372F0A3EFF0229003B7E00D
:101FC000F8A3E0F9A3E0FAA3E0FB9003ABE0FEA3E3
:101FD000E0FFE4FCFDEB2FFFEA3EFEED39FDEC38BF
:101FE000FC9003B7120E0B9003B6E004F0229003AE
:101FF0006CE0FEA3E0FFE4FCFDF9F8C3020DE49001
:1020000003BBE0FCA3E0FDE4020B21900372E0FEC1
:10201000A3E0FFC390036DE09FFF90036CE09E225E
:102020009003B5E0FEA3E0FBCAEECAE4F9F8A3E032
:10203000FCA3E0FDA3E0FEA3E0FF22E49003A4F0F4
:10204000A3F0900373E022E49003ADF0A3F022909C
:1020500003ABE0FFA3E09003B1CFF0A3EFF0229039
:1020600003D4E0FEA3E0FF9003A5E02FF09003A4CB
:10207000229003B2E024FFF09003B1E034FFF0229D
:10208000F0902EC4740AF0902EC37480F022E09079
:1020900003CEF0900367E09003CDF022C8ECC8C9EE
:1020A000EDC9CAEECACBEFCB229FFFEC9EFE900398
:1020B000D4F0A3EFF022F0902EC67416F022900315
:1020C0006CE0FEA3E0FFE4FCFD22E0FCA3E0FDC326
:1020D000EF9DFFEE9C2224FFF0900372E034FFF0AE
:1020E00022900372E004F022E0FCA3E0FDEC22C3A6
:1020F000EF94F6EE6480947F22C0E0C083C082C07B
:10210000D0E8C0E0E9C0E0EAC0E0EBC0E0EDC0E04C
:10211000EEC0E0EFC0E0D2AFE5DB30E41D9003F3AA
:10212000123988E4F0E5DB30E10280389002DDE529
:10213000DFF090035EE4F0022A3CE5DB30E5169028
:1021400002DA123988E06005E4F0022A3C9003F3D9
:10215000E4F0022A3C900360E4F0E5DB30E12EE598
:10216000DB30E00FA3123950123959120BF4F5DFAE
:10217000022A3C90035FE064086003022A3C308A34
:1021800003022A3CD28A9002E5F0022A3C90035EC8
:10219000E0700EA3E5DFF090035E123988F0022AAA
:1021A0003C90035FE090363D93FFB4FF0F9002DD5B
:1021B000E5DFF090035FE004F0022A36EF640F7071
:1021C0002F90036112395090035FE0FF12398F5452
:1021D0000F120C2190036112395090035FE0FF044D
:1021E000F012398FFFE5DF54F04F120C21022A362E
:1021F000900361123950123959E5DF120C33900304
:102200005FE0FDB43419900310E09002C512396606
:10221000900311E0FBEBFF9002C5EEF0A3EFF0EDB1
:10222000B43614900312E090020B12396690031337
:10223000E090020B12396E90035FE0B4281890030F
:1022400004E07F00FE90029AF0A3EFF0900305E017
:1022500090029A12396E9002DCE004F075DBFFD038
:10226000E0FFD0E0FED0E0FDD0E0FBD0E0FAD0E02F
:10227000F9D0E0F8D0D0D082D083D0E03290020AFA
:10228000E024FE6021146027147003022B351470C3
:1022900003022B4224046003022BA390020A74025F
:1022A000F0E4900293F090020A7403F0022EE5121B
:1022B0001EAC9001FDE06077900293E004F0E490A2
:1022C00003CFF0900024E0FF9003CFE0C39F505F66
:1022D000E4FF9003CFE0FE120FF0120FBB1210329A
:1022E000ECF0A3EDF09003CFE0FE120FF0121032ED
:1022F000121250EE120EAA121032ECF0A3EDF00FF3
:10230000EFB409CE9003CFE0FF120F74E4F0A3F016
:10231000EFB40107E49002E8F0A3F0EFB40207E4A1
:102320009002EAF0A3F09003CFE004F0022AA39019
:102330000293E0C394035003022BA390001F747E0A
:10234000F0E49001FEF0900293F0A3E090020A7096
:102350000D7404F02212184FEF606890020A7405A1
:10236000F0229002947401F0123735123E86123634
:10237000BD90028EE07003121EAC1237359001FD45
:10238000E0603D1215BD123735E49003CFF09000A8
:1023900024E0FE9003CFE0FFC39E5019123A601272
:1023A00039989003CFE0FF1232CE1237359003CF29
:1023B000E004F080D9121AE112225390020AEFF0E1
:1023C00012337D229003EE7402F0E49003EBF09060
:1023D00003EBE0FFC394094003022CCB75F002121B
:1023E0000EA9121126EF120FF312107CFE9003ECCF
:1023F000F0A3EFF0123F7C9003EE12105440030262
:102400002C74121104E0B4012775F002EF120F8B47
:102410001212804003022C999003EBE075F0021237
:102420000FF375F002120EA4ECF0A3EDF0022C995C
:102430009003ECE0FEA3E0FF9003EBE0FD75F002FB
:10244000120FDFEE8FF0120CF275F002ED120FDFBB
:102450001211139402EE6480948040189003EBE014
:10246000FD75F002120FDF121206ED120EAAE475CE
:10247000F001801BC3EF94FEEE6480947F503A120B
:102480001235120FDF121206120EA974FFF5F012A8
:102490000CF28025121235120FF3121126120EA91A
:1024A000ECF0A3EDF0121235120F8B12128D4009D1
:1024B00074BF2F12110B7401F09003EBE01211099D
:1024C000E0B4011E9003EBE0FF24C8121212E004F6
:1024D00012120EE0D394054009121104E412120EF8
:1024E000E4F09003EBE004F0022BAF22902ECB74CB
:1024F000F4F0902F58E0540F44F0902EC812289614
:10250000902EC97428F0A3743F122860902ECC74CA
:1025100048F09003687480F09003677409F0A31288
:10252000286E9003677409F0A37480F0902EC5E4C0
:10253000F0902ECDF0A3F0902E4C7488F0E4900330
:1025400069F0A3F09003CFF0122FCE9003CFE004F8
:10255000F0E0C3940840F112278C7B507AC3122715
:10256000CE500C900369744EF0A37420F080437B2E
:10257000C87AAF1227CE500C900369743AF0A37456
:1025800098F0802E12289E7B407A9C1227D9500CFE
:102590009003697427F0A37410F0801612289E7BB4
:1025A000B87A881227D9500A9003697413F0A3747B
:1025B00088F09003691227EEFEF0A3EFF0EE1227E9
:1025C00094E49003A8F090036EE0FFA3E0900374FE
:1025D000CFF0A3EFF090036C1227E2ECC0E0EDC067
:1025E000E0EEC0E0EFC0E090036E1227E212287C1C
:1025F000D0E0FFD0E0FED0E0FDD0E0FC120A7F90FA
:102600000376020E0B9003D67414F0A37432F0908C
:102610000372E0FEA3E0FF90036CE0FCA3E0C312B2
:102620002889123F7C9003D6E0FDC3EF9D7480F8AB
:102630006E98502F12283F12276C9464EE64809499
:1026400080400C12281B04F070031228C18011C3B3
:10265000EF949CEE6480947F500612281B1228B6DB
:10266000023F58C39003D4E06480948050147F1ECE
:102670007E00123C63123E23EF7003022EE4122709
:102680008C22123F5890036BE06059900292E02434
:102690004EFF900291E03402FED39003D5E09F906C
:1026A00003D4E09E405E900372E0FEA3E0FF90033F
:1026B000A6E0FCA3E012288912284712276C943266
:1026C000EE64809480400B12281B04F070031228E3
:1026D000C122C3EF94CEEE6480947F502712281B52
:1026E0001228B62212283FE03EF0D3A3E0940A90CD
:1026F00003A4E064809480400BE412281F04F0706F
:10270000031228C1227E017FE07D007B017A0079DF
:1027100026120E541239DEE4900211F09002C5F038
:10272000A37469F0900291E4F0A37469F090020B35
:10273000E4F0A37455F0900009E4F0A37455F09010
:102740000279E4F0A37432F090029AE4F0A37432B8
:10275000F0122404E4FE900024E0FFEEC39F5073C7
:10276000E4FF75F087EE120F4B1210321212B1EE29
:10277000A424B6F582E5F03400120F1CE4F075F0E5
:1027800087EE120FDF121032E4F0A3F0120EF4E421
:10279000F00FEF640970CBCFEECF123EF0123EFF88
:1027A0001211C9E4F0123F0E123F2C123F1D123FCE
:1027B0003B74F12E121096E4F01210EBE4F090014D
:1027C000FA747EF0E4A3F0A3F0900295F0A3F00E6B
:1027D000022F36E4900202F0900200747EF0900026
:1027E0001FF0E49001FFF022122FCE122FCEE4F55D
:1027F000E2902ECB74F4122896902ECA743FF0907B
:102800002EC97428122860902E4C7488F0902ECE19
:102810007410F0902EC5F0902EC074C2F0E4FFFE4C
:10282000E5E220E20B0FBF00010EBE07F3BFD0F0C0
:10283000902EC0E4F0902ECBF0902E18E0FEA3E096
:10284000FF9003A2E025E025E02482F582E4340332
:10285000F583EEF0A3EFF09003A2E004F0E054075C
:10286000F0E4FFFE900382E0FCA3E02FFFEE3CFECD
:10287000900386E0FCA3E090038A12277690038EF3
:1028800012277B90039212277B90039612277B904E
:10289000039AE0FCA3E090039E1227769003F6E0F3
:1028A000900369B4200C1228AAFEEF2450FFE43EE6
:1028B00080031228AA90036CF0A3EFF022758A50CF
:1028C000538AEF9003F27411F09003F17422F090A8
:1028D00003F47433F075996F759A90E4FFFEC29615
:1028E0000020970CD296003097069003F27487F080
:1028F0000FBF00010EEF640A4E70E3E4FEFFC296C4
:102900000020940CD296003094069003F27487F065
:102910000FBF00010EEF640A4E70E37590FF7599CA
:102920002F759AD0000000E4FEFF30940630960325
:102930002097069003F17487F00FBF00010EEF643B
:102940000A4E70E6758B03E4F58D758EFF758DE08C
:10295000F5AD75AEF075AF1DF5AC7589FF75913E9F
:1029600075990FF59675931CF59BF595F592F59A6B
:1029700075800CC289D28A9003F504F022003200DF
:1029800032000602580004001E000F0032000F0043
:1029900064000A000C000C000C00000000000000A5
:1029A0000000000000000101010B0C0D0E0F0506D8
:1029B0000708090A0403000102006E006E006E00A1
:1029C0006E006E006E006E006E006E006E006E0097
:1029D0006E006E006E006E006E0073007300730078
:1029E000730073007300730073007300730073004F
:1029F000730073007300730073006400640064006C
:102A000064006400640064006400640064006400A6
:102A1000640064006400640064002D002D002D003B
:102A20002D002D002D002D002D002D002D002D003E
:102A30002D002D002D002D002DE49003D1F0FF90EE
:102A400003D0F0EF14601E14603514604C14605B0A
:102A5000240470749003D27401F0A3742FF0A37453
:102A600058F00232A212394D900001120BF4FED33D
:102A7000941F4003123977120BDB6E704B804312A8
:102A8000394D900002120BF4FED394064003123924
:102A900077120BDB6E7031802912394D90000312D2
:102AA0000BF4FE120BDB6E701F801712394D900075
:102AB00004120BF4FE648B6003123977120BDB6E89
:102AC00070069003D0E004F00FEF6405600302325B
:102AD000239003D0E0B40504A37401F09003D1E087
:102AE000FD60079002F2E0547FF0CFEDCF22CBEFF4
:102AF000CB1210CCE0FEA3E0FF120FABE0FCA3E092
:102B0000C39FEC9E4038120FABE0FEA3E0FF75F0D0
:102B100002EBA42432F582E5F03400F583EEF0A355
:102B2000EFF01210CCE0FEA3E0FF120FABE0FCA32D
:102B3000E0C39FFFEC9E120F72EEF0A3EFF0EB6488
:102B400001702A120F73121113949AEE9401400827
:102B5000120F57EEF0A3EFF0120F73E0FCA3E0901A
:102B600002E8121039EC9002ECF0EDA3F0EB6402F5
:102B7000702A120F73121113949AEE9401400812E6
:102B80000F57EEF0A3EFF0120F73E0FCA3E09002FA
:102B9000EA121039EC9002EEF0EDA3F02290020858
:102BA000E0606A90027FE06064900298E0602A1220
:102BB0001168540FFFF0BF0803D38001C340129087
:102BC00002B0E0B40203D38001C34005E49002B038
:102BD000F09002B0E044208028121168540FFFF0FA
:102BE000BF0403D38001C340129002B0E0B40103DC
:102BF000D38001C34005E49002B0F09002B0E044FD
:102C000010F09002E5F0E490027FF0C28A9002B4E6
:102C1000E0B4011890027BE0B4010C121166E4F0FC
:102C20007420F09002E5F0E49002B4F0900297E096
:102C3000601890027BE0B4010C121166E4F074108D
:102C4000F09002E5F0E4900297F0224103F3004196
:102C500003F6104103EF00410293004102090041D5
:102C6000028E004102080041028D014102940041A0
:102C700002B4004102970041027B0041028C0041F6
:102C800002B000410211004102980041027F004160
:102C90000025004102AF004102D70041020D004172
:102CA00002990041029F004102C70041035E0041BA
:102CB000035F004202D800004102DA004102DC005A
:102CC0004102DB00410360004102DD10410364006A
:102CD0004103660041036500009003F6E0FFB41075
:102CE0001F9002F57410F090028EE064017068F09D
:102CF0009003EF04F053AAF790020A7403F0805790
:102D0000EF6420705290028DE06401703090028E6A
:102D1000E070059003EF04F09002F57420F090024B
:102D20008E7401F0902ECBE4F043AA08123E477552
:102D30008601758A50538AEFE4F58D800B902ECB77
:102D4000E4F0123F4A758601758B03758EFF758D11
:102D5000E0902ECB74F4F0438D2022902ECB74F4AF
:102D6000F0E4F5E2902EC97420F09003CEE0902EAE
:102D7000C3F09003CDE0902EC4F0902E4C7402125C
:102D80002896902EC57410F0EF902ECEB4010574E5
:102D900010F08002E4F0902EC074C2F0E4FDFCE577
:102DA000E220E20B0DBD00010CBC07F3BDD0F053D7
:102DB000E2FB902EC5E4F0902ECEF0EF902E18B4EA
:102DC0000109E0FFA3E09003A98007E0FFA3E090E2
:102DD00003ABCFF0A3EFF0902ECBE4F022023B88C0
:102DE000E493A3F8E493A34003F68001F208DFF430
:102DF0008029E493A3F85407240CC8C333C4540FA8
:102E00004420C8834004F456800146F6DFE4800B7A
:102E1000010204081020408090342BE47E0193606E
:102E2000BCA3FF543F30E509541FFEE493A36001A7
:102E30000ECF54C025E060A840B8E493A3FAE49311
:102E4000A3F8E493A3C8C582C8CAC583CAF0A3C8BF
:102E5000C582C8CAC583CADFE9DEE780BE000000BC
:102E600000FFFFFFFF0000FFFFFFFFFFFFFFFFFF6F
:102E700000FFFF0000FFFF000000FFFFFFFFFFFF5C
:102E8000FF00000000FFFFFFFFFFFFFFFFFFFF004D
:102E90000000000000000000000000000000000032
:102EA0000000000000000000000000000000000022
:102EB0000000000000000000000000000000000012
:102EC0000000000000000000000000000000000002
:102ED000000000000000000000000000009002F46C
:102EE000E0FF6410606EEF642070699002F474304B
:102EF000F07F0112353B9003C7E0FEA3E0FF900393
:102F0000A9E0FCA3E0C39FFFEC9EFECDEFCDFC1239
:102F10000B217B667A6679487842120A7FE4FBFAD5
:102F200079B87841120885E4FBFA79C87842120929
:102F3000769003C9120E0B9003C912280F120B5A78
:102F4000CDEFCDCCEECCEC9002F6F0EFA3F09002FA
:102F5000F47410F02290020DE01460201460271425
:102F6000604A2403705E30885B90020D7402F07F2B
:102F70000B123ED212081E9002C780062088459090
:102F8000029F7401F0227F0B1238B1EF600312121E
:102F9000B920883090020D7403F09002997401F00A
:102FA0007F0C123ED212081E1212B9227F0C123868
:102FB000B1EF60107F0C123ED290020D7401F0E46C
:102FC000900299F0229003D07408F0A3E4F0A37467
:102FD0003FF0A374DFF0E4FDFCF9758A10538AEF2B
:102FE0000000009003D0E0FEA3E012397EFF69F9F3
:102FF0000DBD00010CBC37EBBDDFE89003D2E0FE55
:10300000A3E0F5828E83E4936970089002DF740F69
:10301000F08005E49002DFF0758A50538AEF0000DB
:103020000022902EC0E4F0902ECB74F4F0902F5834
:10303000E0540F2450902EC8F0902ECC7448F0121B
:1030400011FFA3743FF0902E4C7488F0A37482F0AB
:10305000A37402F0A3F0902EC67414F0902EC174E5
:1030600090F0A37401F0A37420F0A37409F043E37B
:1030700010123CB3900024EFF022C0E0C0F0C083F7
:10308000C082C0D0E8C0E0ECC0E0EDC0E0EEC0E03F
:10309000EFC0E0D2AF900209E004F0C3940A4017F9
:1030A000E4F0120E8D2401FFE43EFEE43DFDE43C1D
:1030B000FC9002C1120E0BD0E0FFD0E0FED0E0FD8C
:1030C000D0E0FCD0E0F8D0D0D082D083D0F0D0E0F7
:1030D000329003D0EFF0C3940D5042E0FF2425124C
:1030E0001174E06038EF25E025E02435F582E43402
:1030F00002120E801210159003D0E025E0245DF539
:1031000082E43431F583120EE6400F9003D0E024C0
:1031100025F582E434021210FD227F00227F002276
:103120007F007E08E4FDFC9003D0F0A3F0758A10C8
:10313000538AEF000000EF12397EFB9003D1E02BA1
:10314000F09003D0E03400F00DBD00010CBC37E678
:10315000BDE0E39003D0E0FCA3E0FDEC9002F9F0C9
:10316000EDA3F0758A50538AEF000000229003D23D
:10317000E0FBA3E0FAA3E0F92290035FE0FF04F094
:103180008F82758300227F00FEF0A3EFF022FDED19
:10319000FFEEF0A3EFF0229003D17401F0222DF5A1
:1031A00082EE3CF583E493227401F090036022E9FF
:1031B0002FF9E43AFA020BDB9003F5E0603F90024E
:1031C000771212F0EE9404500EEF9400EE94034048
:1031D000069003F47487F09002061212F0EE940445
:1031E000500EEF9400EE940340069003F47487F0C1
:1031F000E49003F5F09003F4E09002E4F0227E0006
:103200007F807D007B017A0279DE120E54E4900209
:10321000E5F09002DF740FF09002F074ABF09002D2
:10322000F27497F09003F2E09002E2F09003F1E084
:103230009002E3F09003F4E09002E4F0023219907F
:103240000279E0FEA3E0FFC3900371E09F9003705A
:10325000E09E5004E4F0A3F09003721228C890039B
:1032600006F0EDA3F09003701228C8900308F0ED6B
:10327000A3F090036C1228C890030CF0EDA3F02289
:10328000CBEFCBEB64017017120F97E090032EF099
:10329000120FABA3E090032FF0ECA3F0EDA3F0EB43
:1032A00064027017120F97E0900332F0120FABA375
:1032B000E0900333F0ECA3F0EDA3F0229003ECEFE9
:1032C000F0E0FF24C812118AE06029EF25E025E034
:1032D00024CBF582E43402120E801210159031696D
:1032E000120EE6400F9003ECE024C8F582E43402AD
:1032F0001210FD227F00229003EBEFF0E0FF24A0EC
:10330000121195E06029EF25E025E024A3F582E481
:103310003402120E8012101590316B120EE6400F1F
:103320009003EBE024A0F582E434021210FD227F2A
:1033300000229003D2EFF0E0FF240E1211A0E06013
:1033400029EF25E025E02412F582E43402120E80F4
:1033500012101590315F120EE6400F9003D2E02458
:103360000EF582E434021210FD227F00229003D277
:10337000EFF0E0FF24B11211C1E06029EF25E02554
:10338000E024B5F582E43402120E8012101590315B
:1033900063120EE6400F9003D2E024B1F582E434CC
:1033A000021210FD227F002212086653A87F1230FD
:1033B0009D123CDA43A880123F70123EBA12084EAA
:1033C000123E69EF24E0600A2410700AC283C282B0
:1033D0008004D283D2821224041234B9122A5D806E
:1033E000DF9003ECEFF0E0FF247C12117FE0602619
:1033F000EF25E025E02480F582E43402120E80906F
:103400003161120EDA400F9003ECE0247CF582E487
:1034100034021210FD227F00229003D2EFF0E0FF71
:10342000240C1211ABE06023EF25E025E02413F516
:1034300082E43400120E80120ED7400F9003D2E0C7
:10344000240CF582E434001210FD227F0022900348
:10345000D2EFF0E0FF24321211B6E06023EF25E056
:1034600025E02469F582E43402120E80120ED74062
:103470000F9003D2E02432F582E434021210FD22D0
:103480007F0022CBEFCBCAEECA900004E0701B9005
:1034900000047401F0120E8DFF900005120E0BCF88
:1034A000EBCF900275EAF0A3EFF022CBEFCBCAEEA0
:1034B000CA90000BE0701B90000B7401F0120E8D8F
:1034C000FF90000F120E0BCFEBCF90028FEAF0A30C
:1034D000EFF022902EC5E4F0902ECDF0A3F0FFFE89
:1034E000EE90317993600D749C2FF582E43402F5EF
:1034F00083EEF00F0EEEB410E7229003617401F03A
:10350000A37402F0A374DEF0E4F5DA75DA4043DA6E
:103510002075D74075DA5843A90875B80875F808BA
:103520002290000BE0601D90000F120E8212101509
:1035300090028FE0FEA3E0120EEC4008E490000B36
:10354000F07F01227F00221210B5501E12117CE084
:10355000701812117C7401F0120E8D1210F6248076
:10356000F582E43402F583120E0B221210B5501EC0
:10357000121187E070181211877401F0120E8D126B
:1035800010F624CBF582E43402F583120E0B2212DE
:1035900010B5501E121192E070181211927401F0C1
:1035A000120E8D1210F624A3F582E43402F5831274
:1035B0000E0B221210B5501E12119DE07018121140
:1035C0009D7401F0120E8D1210F62412F582E4346F
:1035D00002F583120E0B221210B5501E1211A8E034
:1035E00070181211A87401F0120E8D1210F6241327
:1035F000F582E43400F583120E0B221210B5501E32
:103600001211B3E070181211B37401F0120E8D1282
:1036100010F62469F582E43402F583120E0B2212AF
:1036200010B5501E1211BEE070181211BE7401F0D8
:10363000120E8D1210F624B5F582E43402F58312D1
:103640000E0B22900004E0601BA3120E82121015D4
:10365000900275E0FEA3E0120EEC4008E490000436
:10366000F07F01227F00229003F3E0701BE4F58DD0
:10367000758B02758EC1758DA0F586438A84E5DB56
:1036800020E205758703000022E4FD9002DAE06085
:10369000119002DEE0FE54F0FDEE540FF0E49002D3
:1036A000DAF0CFEDCF2290028DE0B4010E9002C788
:1036B000E060051227858003122FCE121CD2023A39
:1036C0001F9002C1120E17000000007E007F0D7DCA
:1036D000007B017A027925020E547E007F617D0015
:1036E0007B017A03796C120E54122CCCE4900365A2
:1036F000F022EFD3940D500874252F121174E4F0CA
:1037000022EFD394035008747C2F12117FE4F0222F
:10371000EFD39403500874C82F12118AE4F022EFFB
:10372000D39403500874A02F121195E4F022EFD324
:1037300094035008740E2F1211A0E4F022EFD394DA
:10374000035008740C2F1211ABE4F022EFD3940352
:10375000500874322F1211B6E4F022EFD3940350C4
:103760000874B12F1211C1E4F022E4F58DF58BF548
:103770008675870300000022E4900004F090027533
:10378000F0A3F022E490000BF090028FF0A3F0225F
:1037900012380290020A7401F0022EE5EE30E707BB
:1037A000C3E49FFFE49EFE22000000000000000032
:1037B0000000000000000000000000000000000009
:1037C00000000000000000000000000000000000F9
:1037D00000000000000000000000000000000000E9
:1037E00000000000000000000000000000000000D9
:1037F0000000000000000000000000000000005A6F
:1038000000000000000000000000000000000000B8
:1038100000000000000000000000000000000000A8
:00000001FF
