:100000005446495300010000C88801007CEAB969E0
:1000100002060125151201134E4137300206013543
:10002000151201134E413730020601131512011348
:100030004E413730030000000000000000000000C7
:100040005446435300200000D8780100000000000F
:1000500000C000200121000007210000092100004C
:100060000B2100000D2100000F2100001F210000C6
:100070001F2100001F2100001F210000112100008E
:10008000132100001F21000015210000334F000044
:1000900023500000192100001F21000085030020CB
:1000A00019210000193400004F3400001F21000006
:1000B0001F210000574C00001921000019210000E9
:1000C00055490000192100001F2100001F210000D8
:1000D0000000000000000000000000000000000020
:1000E0000000000000000000000000000000000010
:1000F0000000000000000000000000000000000000
:1001000000000000000000000000000000000000EF
:1001100000000000000000000000000000000000DF
:1001200000000000000000000000000000000000CF
:1001300000000000000000000000000000000000BF
:1001400000000000000000000000000000000000AF
:1001500000F010F8FEE7FEE7FEE7FEE7FEE7FEE749
:10016000FEE7FEE7FEE7FEE701480047FEE7FEE7A1
:100170001F21000000F002F800F040F80CA030C889
:10018000083824182D18A246671EAB4654465D4613
:10019000AC4201D100F032F87E460F3E0FCCB6469D
:1001A0000126334200D0FB1AA246AB463343184720
:1001B000306E0100606E0100103A02D378C878C139
:1001C000FAD8520701D330C830C101D504680C6099
:1001D000704700000023002400250026103A01D3B8
:1001E00078C1FBD8520700D330C100D50B607047EF
:1001F0001FB5C046C0461FBD10B510BD034885469B
:10020000FFF7F6FF03F0F8FF14F071F800C00020CC
:1002100003B4FFF7F1FF03BC14F070F870B50546A6
:100220000C46164602E00FCC0FC5103E102EFAD237
:10023000082E02D303CC03C5083E042E07D301CCFD
:1002400001C5361F03E021782970641C6D1C761EE1
:10025000F9D270BD7047002800D00120FB49096821
:1002600008627047F9480068006A002800D0012041
:100270007047F64A800012688018FF30FF30023065
:1002800001607047F149800009684018FF30FF3075
:1002900002300068FF210131084070477047EC4987
:1002A00008707047EA4800787047F0B4E74F3A6842
:1002B000526A3B681C691D460723DB01EE18336850
:1002C0000225002910D0002805D00121012805D0E1
:1002D00011281DD105E02A432C4319E00A430B43A2
:1002E00016E00A432B4313E0002804D0012805D070
:1002F00011280DD109E0AA43AC4309E05B085B007B
:10030000980705D15208520002E0AB439807F9D094
:1003100038684262386804613360F0BC704710B4DA
:10032000CA49024609680020496A002A11D0C74C10
:1003300007232468DB01E318012A0FD0112A06D114
:100340008907890F022902D01968890703D410BCD4
:1003500070478907FBD5012010BC70478907890FBA
:100360000229F9D01968C907F5D110BC7047F0B55A
:10037000B64C002122681162016822681160416850
:1003800022685160816822689160C1682268D160EA
:10039000016922681161416922685161816922689D
:1003A0009161C1692268D161426A21684A62816AA9
:1003B0002268D162C16A22681163016B22685163AD
:1003C000416B22689163816B2268D163C16B2268A3
:1003D0001165016C22685165416C22689165816CE0
:1003E0002268D165C16C22681166016D2268516670
:1003F000416D22689166816D2268D166C16D226867
:100400009167016E2268D167426E216880314A602F
:10041000826ECA60C26E4A61026F8A61426FCA61AF
:10042000826F0A62C26F8A62024680321368CB65AD
:1004300053680B669368CB66D3682168FF3101313E
:100440008C460B6013694B6053698B609369CB607A
:10045000D3690B61136A4B61936ACB6121680323F3
:10046000FF31FF3102310B604B60536B0B61136C3A
:10047000CB61536C0B62936C4B62D16C0723256884
:10048000DB01EB181960116D5960516D9960916D28
:10049000D960D16D1961116E5961516E5962916EB9
:1004A0009963D16ED963116F1964516F5964956F57
:1004B00001212668890271180D62D56F0D66C11D74
:1004C000F9310D6809272668FF01F61935604E6875
:1004D000052527682D027D192E608E686E64CE6812
:1004E0006E650E69AE654E69072527682D027D1978
:1004F0002E608E696E60CE69AE600E6AEE604E6AE6
:100500002E618E6A6E61CE6A2E620E6B6E624E6BCB
:10051000AE628E6BEE62CE6B2E630E6C6E634E6CB3
:10052000AE638E6CEE63CE6C2E640E6D6E644E6D9B
:10053000AE648E6DEE64CE6D2E650E6E6E654E6E83
:10054000AE658E6EEE65CE6E2E660E6F2E674E6FAA
:100550006E678E6FAE67C96FE967D11DF9310E689E
:100560000F252768ED017D19AE604E68EE608E683C
:100570002E61CE682E62096929633649096A0D0A1F
:1005800008D16546AD6909072D092D01090F0D43F5
:1005900061468D61C5692E490D7000254D7000685A
:1005A000C00701D002204870106FC00703D0487800
:1005B00001252843487020680068246840084000EE
:1005C0002060186C400840001864906D4005400D94
:1005D0004880F0BD1E49487070471C48006800689C
:1005E000C007C00F704719480068406A012109041C
:1005F00008407047F8B5044614480068456AA007EB
:1006000002D50220054301E002208543E0077DD0AA
:100610000120054301F097F8074601F097F80146DD
:100620000A480068406A01263604304201D0084674
:1006300001E038460F46054A07211268C9015118E2
:100640000028086808D00122104307E00481010057
:100650009C080020C0FE0300400840000860002FF6
:1006600004D0086802221043086003E00A680220F0
:1006700082430A60F7484278D30755D0F64F408846
:100680003B685B6C0126360433433E6873643B6809
:100690009B6C9E05F14BB60DEF4F3F68BF6CBF05DD
:1006A000BF0DB74202D15B1EF6D11EE0002B1CD05D
:1006B0004000D30703D00B6C012633430B64920731
:1006C00006D5E74A13681B68012612683343136096
:1006D0000122D202904200D9501ECA684005D20AB7
:1006E000D202400D0243CA601EE0DD4A0B6C5B087B
:1006F0005B000B6413681B6812685B085B00136087
:10070000D54A13685B6C0126360400E003E01268EA
:10071000B3435364DCE7D2486D0801686D00096893
:100720000068490849000160CD4A106845621068B8
:10073000006927218843210701D504210843610767
:10074000C449097812D5082903D91368491CD9610D
:1007500001E001210843A10701D502210843E10777
:1007600001D02021084311680861F8BD1368EEE745
:10077000BB4A00201168496A8907890F022945D0C0
:10078000F0B4B7490A68D26A0723D201D40D0A68C7
:100790001B02D218126EAF4BD2075E880B6807217E
:1007A000D20FC90159180B68DD070B68ED0F02273E
:1007B0003B40002D11D0AA4D2868C06BC005C00D6C
:1007C000002A04D02D68ED6B6D046D0F00E000254C
:1007D0004F68BF06BF0EA840C019002B10D0A04D17
:1007E0002B68DB6BDB01DB0D002A03D02A68D26BA0
:1007F0005200520F49688904890E93401818401816
:100800001E2170434C432018F0BC70477047F0B471
:10081000934F00203968496A89073BD539680D69CB
:1008200004210D4039680E6902210E4039680969BA
:10083000CC073968E40FC96ACA053968D20D096B5B
:10084000CB053968DB0D896BC905C90D002D03D0B7
:100850003868806B0002000E002E14D007263D6819
:100860003602AD192D6E3E68ED07F669ED0FB6063E
:10087000B60E002D03D03D68AD6B6D046D0F0F46B5
:10088000AF4077433818002C00D040181E21584341
:100890004A431018F0BC704770B571480168C968C8
:1008A0000068CC064069E40EC504ED0CFFF760FF5C
:1008B0000646FFF7ACFF65431E214D4330187D21EE
:1008C0004019C9004843674913F019FA70BDF8B5DB
:1008D000634E07463068C068C406E40E00D10124A8
:1008E000FFF746FF0546FFF792FF2D18002F1BD09C
:1008F00039465D4813F003FAA8420BD921461E225F
:10090000401B514313F0FBF901214903884202D9EE
:10091000481E00E0002031684969C004490B4903C2
:10092000C00C014330684161306840691E21C00439
:10093000C00C6043484341194B4813F0E0F9F8BD3F
:1009400070B547480168C9680068CD064069ED0E7A
:10095000C404E40CFFF70CFF0646FFF758FF0146FE
:100960006C431E204443A01941183F4813F0C7F9B7
:1009700070BD3B490A685269D3040A68DB0C5269AE
:10098000C004520B5203C00C02430868426118466F
:100990007047334800684069C004C00C704710B508
:1009A000002807D02B484188304813F0A8F9401C94
:1009B000400810BD2A480068006BC105C90DF3E767
:1009C00070B52A4E0546304613F099F9401C44088C
:1009D0002146304613F093F9401C43082048072273
:1009E000066812026108B218002D15D0194EA51F15
:1009F000748006680720C0013018066CF60700D026
:100A000064000126F602B44200D9741E0904214391
:100A1000C160D567184670BD8E1FB51F09042143FC
:100A20000468216300680121890240180662956705
:100A3000F0E70B49012804D01128086806D0806B24
:100A400001E00868C06BC005C00D7047C06BC001F5
:100A5000C00D70479C08002000810100E7030000E2
:100A6000048101003075000000389C1C60EA000021
:100A700030B4FF4C0F222568D2010307AA18002BBF
:100A80001DD0D268CB058A1AF94D07212D680902BD
:100A9000DB0D6918921E012813D01128206820D080
:100AA000806B400A4002184323689863086FD205A0
:100AB000400A4002D20D1043086730BC704792686C
:100AC000E0E72068C06B400A400218432368D863FF
:100AD000486FD205400A4002D20D1043486730BC2F
:100AE0007047C06BE34D1B04284018432368D8634C
:100AF000486FD2052840D2091043486730BC704780
:100B000010B4DB4A116880314B69FF240134234063
:100B100001280AD0112848690DD01168C0B2896B2C
:100B2000C905C90D002B0ED10CE0486911680002FF
:100B3000000EC96BF4E711680002C96B000EC90111
:100B4000C90DEFE70020081A0004000C00D10120B5
:100B500010BC7047C649102200280868406A03D0BC
:100B600009681043486270470968904348627047BB
:100B700010B4BF490868406A102290430A68506266
:100B8000002002460C6883001B191A65401C0828C7
:100B9000F8D310BC70478207830810B4B448D20E53
:100BA00000689B001818036DFF249440491CC9B2CB
:100BB000A34391400B43036510BC7047AC4B8208C4
:100BC0001B689200D218126D8007C00EC240D0B2CE
:100BD000491C884201D10220704700207047A44878
:100BE00000688030006A7047A14810210068FF301B
:100BF000FF300230016170479D4A12688032002840
:100C000005D0012805D0112800D1D161704751606D
:100C1000704791617047964902460968002080310B
:100C2000002A05D0012A05D0112A00D1C8697047D1
:100C3000486870478869704710B48D4A0146072498
:100C40001368002024021B191B6EDB07DB0F0BD07F
:100C5000012905D01068112908D0806B400407E0F5
:100C60001068C06B4004400F10BC7047C06B400060
:100C700010BC400F704730B47D4B07221C68120235
:100C8000A218146E01252C4314664A070724520F3C
:100C900024031103012809D0112818680ED0806B95
:100CA000A04308431968886330BC70471868C06B5C
:100CB000A04308431968C86330BC7047C06B072164
:100CC00009078843110708431968C86330BC704797
:100CD000674902460B6807210020090259180B6E6C
:100CE000DB07DB0F08D0012A03D0112A05D0486D9D
:100CF00000E0C86D4007400F7047C86D4003400FCB
:100D0000704710B45A4B4A07072419682402520F3F
:100D10000919012808D011280DD0486DC008C0005D
:100D20001043486510BC7047C86DC008C000104330
:100D3000C86510BC7047C86D07231B049843120494
:100D40001043C86510BC7047042943D870B5484C9F
:100D50000723266800221B02F3181E6E0546F607BD
:100D6000F60F0FD0012806D02068112D07D0806B18
:100D70004004420F06E02068C06B400401E0C06BF5
:100D80004000420F1E6E2C460020F607F60F0CD0D6
:100D9000012C03D0112D05D0586D00E0D86D40070F
:100DA000400F02E0D86D4003400F891A4418042C0C
:100DB00003DD091B0424091D03E0002C01DA0919D5
:100DC000002451182846FFF756FF21462846FFF712
:100DD00098FF70BD70472649072309681B0201224E
:100DE0001204C9180028086E01D0104300E0904397
:100DF000086670471E490723096802461B02002047
:100E0000C918002A06D0012A06D0112A01D1886DFE
:100E1000000C7047086D00E0886D80B2704714497F
:100E200002460B6807210020090259180B6EDB07E8
:100E3000DB0F09D0012A04D0086E112A05D0C005A5
:100E400001E0086E8005C00F70474005C00F704775
:100E5000024607480168FF31FF310231C869C00707
:100E6000C00F002ACA6907D001231A4306E0000018
:100E700004810100FFFF00FE52085200CA61704762
:100E8000F8B5074606980C46022A02D3921E560869
:100E900000E00026022B02D39B1E5D0800E0002527
:100EA000142112F02CFF02467D48012F04D0006867
:100EB000112F05D07B4901E000687B49401801E013
:100EC0007A494018016803231B069943A3079B092D
:100ED00019430F231B04994333071B0B19430F239B
:100EE0001B0299432B071B0D1943090A0902D2B2B1
:100EF00011430160F8BDF0B4694C0726246836023E
:100F0000049DA419012803D0112803D0606A02E0CF
:100F1000606B00E0606C8401A70F0403260F0405DA
:100F2000240FC0B2002900D00F60002A02D0710047
:100F3000891C1160002B02D06100891C1960002DF2
:100F400002D0142148432860F0BC7047F3B591B03B
:100F5000002401270D467F036E4601E0082C08D2CD
:100F6000601C810041180120800312F0C8FE401B64
:100F700006E0E01F81004118384612F0C0FE401B19
:100F8000002800DA4042A100641C7050102CE5D308
:100F90000023009A012081007158914201DA0A462B
:100FA0000346401C1028F6D311983D49012805D06E
:100FB0001128086807D0E521C90002E00868E72188
:100FC000C900411802E0E921C90041180A680B6014
:100FD000082A05D2521C900011180120800303E05A
:100FE000D21F90001118384612F089FE13B0F0BDE0
:100FF00010B52B490722096812028918012803D06D
:10100000112803D0886A02E0886B00E0886C082809
:1010100005D2401C810041180120800304E0C01F5C
:10102000810041180120400312F069FE10BD000745
:10103000000F01280DD11A48072300681B02012266
:101040001204C0180029416901D0114300E0914306
:1010500041617047014609070020090F012908D1A5
:101060000F4907220968120289184969C90300D586
:10107000012070470A490A680721C90151184A6AC4
:1010800048621046704710B4054A072413682402CA
:101090001B19986010688030016610BC7047000012
:1010A0000481010024070000340700004407000009
:1010B00010B5FFF7D7F810BD10B5FFF7D3F801282A
:1010C0000AD10020FFF7C7F803210020FFF7D1F86D
:1010D00003210120FFF7CDF810BD10B5FFF7BAF8D6
:1010E000FFF7C0F801280AD10020FFF7B4F8032168
:1010F0000020FFF7BEF803210120FFF7BAF8012115
:10110000052001F036FB0121052001F032FBF849F2
:101110000020487010BD10B5602001F07BFB6020FE
:1011200001F06BFB10BDF24A0146507A002800D056
:101130000120002900D0012151727047EC4A9169C9
:10114000906108467047EA4800210172C1717047FA
:10115000E74800210172C1717047F3B50007BBB0C9
:10116000000F3B904000801E002501903B99280114
:1011700008430090FFF7D3F800283ED0284670229D
:1011800050433C9A0021841838224A43A318702205
:1011900000204A4302AE9219460087009E5B401C25
:1011A000D6511C28F8D3491C0229EDD30098FFF72B
:1011B00043FD012686400098FFF71CFE00240090A6
:1011C000002E1AD901980721401909024843C9493C
:1011D00009684718702060433918C74870220818FA
:1011E0000099E140C907C90F514302AA891870222A
:1011F000FFF714F8641CB442ECD36D1C022DB5D378
:101200003DB0F0BDF8B50446FFF74CF805460020A8
:10121000FFF701FD8446012200209203002D17D91B
:10122000702603467343B34E002136689F1901238D
:101230008B406646334205D08E00BE192388B6180F
:10124000A41C3360491C1C29F1D3401CA842E7D3DD
:1012500070204543A748702100682818801812F0B4
:101260004CFDF8BD10B5A2494861FFF7C3F910BDA8
:1012700010B5A24801688968A14A114302689160CB
:10128000016809689F4A00681143016000F0B0FDE1
:1012900010BD70B5994A064610680C46816898489A
:1012A000014310688160106800689649084311681E
:1012B000086000F09DFD8E4D002C34D00020FEF71C
:1012C000CAFF2068002804D0FFF751F80020FEF77D
:1012D000C2FF30466E61FFF78DF90020FFF71FF85F
:1012E000002810D06068002801D0FFF78BFFE1686C
:1012F000002908D07F4803230068FF225B030132E6
:10130000C018FEF78BFF0120FFF709F8002804D171
:101310001120FFF704F8002805D0A168002902D0A9
:101320000120FFF71AFF00202872E871A861687A8F
:1013300000206872602001F06DFA602001F05DFA13
:1013400070BD10B50020FEF786FF00F036FD6B483B
:10135000016809686C4A89088900036811431960AB
:10136000016889680223994300681143816010BDB8
:1013700010B5602001F045FA10BD10B5602001F0F5
:1013800040FAFEF76FFF01280AD10020FEF763FF45
:1013900003210020FEF76DFF03210120FEF769FF06
:1013A0005A480168496C0122120400689143416463
:1013B0000020FEF750FF00F000FD5048016809686A
:1013C000514A8908890003681143196001688968D6
:1013D0000223994300681143816010BD444840696D
:1013E000704743480078002800D00120704770B54E
:1013F000FEF738FF00280FD13D4D00242C72EC7110
:1014000003212046FEF735FF03210120FEF731FFBF
:101410002C700120FEF71FFF70BD10B5FEF722FFF4
:1014200000280DD1324C2072E0710321FEF721FF1C
:1014300003210120FEF71DFF01202070FEF70BFFA6
:1014400010BD10B50020FEF706FF10BD10B52849ED
:101450000020C8710120FEF7FEFE10BD2449C861BE
:1014600070472348C069704770B5214C0025E0697A
:10147000401CE0612078002802D00020FEF7EBFE3F
:1014800002212846FEF7F5FEA169002901D0284671
:1014900088471F48016820221143016070BD70B564
:1014A000134C0125E069401CE0612078002802D03F
:1014B0000020FEF7D0FE02212846FEF7DAFEA169E1
:1014C000002901D02846884711480168202211438D
:1014D000016070BD0F4870470F4870470448006AAC
:1014E00070470348406A70470148806A70470000AF
:1014F000A00800201C810100704E00000C8101003A
:101500000200341203003412000034120081010082
:10151000D0080020BC0A0020D90A0020F0B4002521
:10152000FA4F87B09C466C1EF94B7C5500265E55E1
:101530006D1C1D2DF8DB0025002804D9565D7E5555
:101540006D1C8542FAD300221546002813D9BE56D9
:10155000002E0DDB012E01DA264604E0092E01DA09
:10156000133600E0093E1C2E02D20123B3401D4376
:10157000521C8242EBD3002216466C460123934054
:101580002B4202D0A654761C02E00023DB43A35476
:10159000521C1C2AF2DB0022002816D9DC4E551EF4
:1015A000BB56002B0EDB012B01DA2B4604E0092B86
:1015B00001DA133300E0093B1C2B02D2E35CB35485
:1015C00000E0B554521C8242EAD30023D14A0028DD
:1015D00013621A4609D9CE4DAE56964202D0CD4876
:1015E000056202E0521C8242F6D30020CA4D461E1C
:1015F000CA4F2E540022CA4B3A541A54401C1C287D
:10160000F6DB0020002905D96246125C2A54401CF2
:101610008842F9D30020024600290AD9AB56002B94
:1016200004DB1C2B02D201279F403843521C8A4204
:10163000F4D300221346012637469740074202D0D2
:10164000A3545B1C02E00027FF43A754521C1C2A32
:10165000F1DB002200290AD9AB56002B04DB1C2B3E
:1016600002D2E75CAE4B9F54521C8A42F4D3002254
:10167000A84B00299A6209D9A94B9F56974202D0DC
:10168000A44A936202E0521C8A42F6D3CA070AD0E7
:101690001B2233469340034203D133469340184301
:1016A00001E0521EF5D500221346571E0126964032
:1016B000064202D0A3545B1C00E0A754521C1C2A13
:1016C000F4DB002000290AD9944B2A56002A03DBB8
:1016D0001C2A01D2A25C1A54401C8842F5D3002077
:1016E0008C4B0029586204D98C4A1456844203D08A
:1016F0005A6207B0F0BC7047401C8842F5D307B06F
:10170000F0BC70478721C90048438649401870479C
:101710005E21484384494018704710B47D4C012B2A
:10172000A070E17003D9401C4008400011464143BD
:1017300020714900A1814000E08110BC7047754ACA
:101740005071917170477348807970477148407942
:101750007047764A1070517070477449085C704742
:10176000F8B56C4D0446687A002802D1E87912F089
:101770004AFE287A00281ED0002668693346324681
:101780003146870707D5674E470704D5AB893746EB
:101790005B085B00DB19C70704D0C00601D56249AE
:1017A00000E0614AE8696660A360E2602161206050
:1017B000002060610120F8BD564900200872704782
:1017C000F8B50446FEF76EFD00900020FFF723FAFF
:1017D000054600990020002919D90126B703702376
:1017E00002465A43524B00211B68D31832468A40A6
:1017F0002A4205D08A009A18D21912882280A41C85
:10180000491C1C29F2D30099401C8842E7D3F8BD3B
:10181000F8B5FEF747FD00900020FFF7FCF90099AE
:10182000002200291FD90125AE03FF273F017024A4
:10183000134663433E4C002124681C192B468B4001
:10184000034209D08B00E3189B191B881B051B0D55
:10185000BB4201D90020F8BD491C1C29EED30099D8
:10186000521C8A42E3D30120F8BDF3B50007000FF4
:1018700081B00025019001982E0106433046FEF705
:101880004EFD00283CD03046FFF7D6F901248440B5
:101890003046FFF7AFFA8446284670214843029944
:1018A0000022401800900721284609024843204999
:1018B0000968401886460026002C08D96046F0408A
:1018C000C007C00F904202D0761CA642F6D3A642B3
:1018D00013D23821009851434318702700217E43CA
:1018E000704680198E00871927267602BE194F0090
:1018F000366F491CDE531C29F4D3521C022ADAD35A
:101900006D1C022DB7D303B0F0BD0000BC0A00204F
:10191000F50A0020A0080020D90A0020120B0020A0
:101920002E0B00204C0B0020840F0020AA08002062
:101930001C810100F1B5000782B0000F0290400049
:10194000801E002400900298270107433846FEF7C6
:10195000E6FC002831D03846FFF76EF901258540B6
:101960003846FFF758F90022002D26D900990723A1
:1019700009191B025943D24B1B68C9188C467023A6
:10198000002153436646F61801238B4003420ED0D4
:101990008B00F71827235B02FB181B6F1F05FF2323
:1019A0003F0D1B019F4202D9002003B0F0BD491C2E
:1019B0001C29E9D3521CAA42E1D3641C022CC2D3D5
:1019C000012003B0F0BD70235943BD4B80001B685C
:1019D000C918081801218903401802607047702255
:1019E0005143B74A800012688918081801218903F9
:1019F0004018008880B27047FFB5B1480D460068B6
:101A0000012183B0890340181F4616460C9C0190A3
:101A1000FEF728FC0090002802D00020FEF71BFCF7
:101A20000020FFF7F8F88446E8198646A84219D93D
:101A3000284670225043019A00218718039B0AE030
:101A400001229A406046024204D022889800491C34
:101A50003A50A41C5B1CB14201D21C2BF0D36D1C6C
:101A6000AE45E5D80098002805D096490020C871F9
:101A70000120FEF7F0FB07B0F0BDFFB50746904828
:101A80000E460068012183B0890340181C460C9D56
:101A90000190FEF7E7FB0090002802D00020FEF73F
:101AA000DAFB30198446B04218D90598864B3A18AB
:101AB00030467021484301993C46411807E01857C9
:101AC0001C2803D28000085A2880AD1C641CA24246
:101AD00001D91C2CF3D3761CB445E9D80098002812
:101AE00005D078490020C8710120FEF7B4FB07B08B
:101AF000F0BDF8B5724A012312689B03D71800287D
:101B00000C4626D001070006090F060F01291FD138
:101B1000022E1DD2FEF7A6FB050002D00020FEF724
:101B20009AFB0720000246430023F7194600184697
:101B30007021002248433818910041188919521C1D
:101B40000C671C2AF8D35B1C102BF0D3002D16D188
:101B5000F8BDFEF787FB050002D00020FEF77BFBF7
:101B60000020702100224143C9199300521CCC501F
:101B70001C2AFAD3401C2128F3D3002DE8D0514968
:101B80000020C8710120FEF766FBF8BD10B5FEF716
:101B9000B7FF4C49088210BD70B504460F20494973
:101BA000000225460540098AE0B2884200D908466D
:101BB0006422504312F0A3F8290A64225143081802
:101BC00080B2E10401D500B270BD404200B270BDE8
:101BD000002803DA404281B2002002E081B20120F5
:101BE00000030F2212020A400243C8B23549098A93
:101BF0004843000A1043704710B50020FEF7AAFFC3
:101C000010BD10B5FFF7E7F810BD70B50020FEF766
:101C1000A1FF2B480122006892032C49801812F082
:101C20006CF80020FEF7A5FE00210846FFF723F818
:101C300000210120FFF71FF800211120FFF71BF8FA
:101C400000210846FFF75DF800210120FFF759F851
:101C500000211120FFF755F80120FEF7A0FE0446F1
:101C60000120FEF7E6FE06461120FEF7E2FE0546DD
:101C7000A64200D92646A54200D925463146012074
:101C8000FEF7F6FE29461120FEF7F2FE0020FEF7D1
:101C9000A1FC70BD10B50B4902204861FEF7AAFCFB
:101CA000FEF766FF064801220068E721920309015A
:101CB000801812F022F80020FEF75BFE10BD000035
:101CC0001C810100A0080020D90A0020701C00001F
:101CD000F0B45D49012482B0002802D000200870D1
:101CE00000E00C70594E30680068594A1043326861
:101CF00010600A78574D584B002A0ED01968574883
:101D0000C8601968564888601868806818210843B8
:101D100019688860012000900DE019685148C8607A
:101D2000BB201968400488600FE001950198411EAE
:101D30000191FBD20098411E0091F6D2186880688C
:101D4000012109030843196888600120009005E01B
:101D500001950198411E0191FBD20098411E00910E
:101D6000F6D21868C068302108431968C86018683E
:101D70008030016B21430163009404E001950199D7
:101D80004F1E0197FBD200994F1E0097F6D219689B
:101D9000CC6707211B680902196100218160002AB4
:101DA00000D0446130680068042188432E4908430C
:101DB0003168086002B0F0BC704727480168C96804
:101DC000302291430268D1601F490978002905D06B
:101DD00001688968254A0068114081601B490868CC
:101DE000006804229043204A096810430860704745
:101DF000164908680068164A0968104308601248C6
:101E000001781548002905D001688968184A1143EE
:101E1000026891600168C968302211430268D1608C
:101E200000688030016B0122114301637047000696
:101E30001049000C084308490968086470470649BE
:101E40000D48096808647047CC0800200C81010027
:101E500004003412E204000008810100057601004C
:101E60002000760105F4010000003412E7EFFFFFC7
:101E70001810000013005FA000005FA010B45348CA
:101E800051490268916103688A1CDA6103684A1C3F
:101E90005A6303681B6804689B089B000B4323601C
:101EA00003685B695B085B000B4301684B61016879
:101EB000096911430268116102684549916000682F
:101EC0004449C16044490020086010BC704770B5A7
:101ED00001F0C0F8404D2C68002C05D0002028608F
:101EE00001F0BDF8204670BD30BF00F026FD00288F
:101EF000F1D000F035FD6860EDE7F8B501F0AAF823
:101F0000314F324E344D2C68002C05D00020286013
:101F100001F0A5F82046F8BD72B630684763316815
:101F20002E48886120BF31688F613168486362B68E
:101F3000BFF36F8FBFF34F8F00F0FFFC0028E2D09C
:101F400000F00EFD6860DEE72048016809681E4A5F
:101F50008908890011430268116002682049916074
:101F6000016809691D4A00681143016130BF70476B
:101F700072B615491548026851630268C91CD161DF
:101F80000068891E816162B670471048016809685F
:101F9000144A00681143016070470C4801680968E1
:101FA000094A89088900006811430160704772B6C8
:101FB00005490648026891610268891CD161006880
:101FC000491E416362B67047000034120C81010063
:101FD0003C00341228003412D008002001003412D2
:101FE00008003412030034127047002800D001208A
:101FF000A4490968486070470022002907D908C829
:102000005B1C01D000207047521C8A42F7D301208C
:10201000704770B400242346002A0FD920C89E00C0
:102020008E59B54201D0641CA4B25B1C9BB2934292
:10203000F4D3002C02D070BC0020704770BC01208B
:102040007047F8B5054601F00FF800208D4E0746A1
:102050003268212111602F603168096804223368D9
:1020600011431960316809681142FBD1412132687E
:102070008901116040232C46002104CC521C002A07
:1020800007D031680F60401CC0B20828E0D302209E
:10209000F8BD491C9942F0D3306807600120F8BDB3
:1020A000F8B5054600F0E0FF0020764E074632689E
:1020B000092111602F6031680968042233681143D7
:1020C0001960316809681142FBD101239B022C463B
:1020D000002104CC521C002A07D031680F60401C3C
:1020E000C0B20328E3D30220F8BD491C9942F0D3C3
:1020F000306807600120F8BDF3B581B0042000907E
:1021000000F0B2FF5F4E022031680860029901982A
:102110000F22B8C9B8C0521EFBD230680068042133
:1021200008433168086030680068400705D500BF83
:1021300000BF306800684007F9D4316800200860AB
:10214000029901980F2278C80F6810389F4208D171
:102150004B68A34205D18B68AB4202D1CB68B34236
:102160000BD00098401E0090401C03D00198FFF750
:1021700068FFC5E7022003B0F0BD10301031521ED9
:10218000E1D2012003B0F0BD70B50D46044600F069
:102190006BFFFF22013221462846FEF73FF801205F
:1021A00070BDF0B505460006C5B014460E46000EDB
:1021B00027D0280A000204A900900291019000F0A3
:1021C00053FFFF2701373A4601990298FEF726F898
:1021D000E8B23F1AA74200D9274604A908183A4690
:1021E000314611F022FD0098FFF72BFF022842D064
:1021F00004A90098FFF780FF02283FD0ED19F619D7
:10220000E41BFF2C19D9FF2701373A46314604A8B1
:1022100011F00BFD2846FFF714FF02282BD004A96C
:102220002846FFF769FF022828D0FF3CFF35FF361C
:10223000013C01350136FF2CE7D8002C18D004AF43
:1022400000F012FFFF22013229463846FDF7E6FF73
:102250002246314604A811F0E8FC2846FFF7F1FEBB
:10226000022808D004A92846FFF746FF022805D017
:10227000012045B0F0BD0A2045B0F0BD0B2045B0AF
:10228000F0BD0000F080010010B52B490A68106015
:102290000968086100F019F810BD10B526490A68F0
:1022A00010600968486100F010F810BD2249096803
:1022B0004867704720490968886770471E480121B0
:1022C000026811660068016570471C4A1168096B55
:1022D000C30702D003239B039943830705D5032338
:1022E0001B03994301231B031943430703D503230E
:1022F0009B0299431943030703D503231B02994308
:102300001943C30602D5C02399431943830602D556
:10231000302399431943430602D50C2399431943AB
:10232000000603D5890889000320014304480143BE
:102330001068016370470000F8800100008101000F
:1023400000005FA0E24801688A68E24903680A4326
:102350009A600268D2680A430168CA6001684969E4
:10236000DD4A006811434161704710B4D8480168E4
:102370004969DA4B4908490002681943516101680B
:10238000C9684022914304681943E1600168896883
:10239000006891431943816010BC704710B5CC4C64
:1023A00020688168CB482268014391602168C96830
:1023B00001432068C16020684069C749084321681B
:1023C0004861C7483F210268D160006800218163ED
:1023D00003210A2000F0CDF90A2000F0EBF9206873
:1023E0004069BE4A400840002168104348612068A7
:1023F000C0684021884323681043D8602068806803
:10240000884321681043886010BDB54A136818607E
:10241000136859604843116888607047B04A136870
:102420001860136859604843C10700D0401C116808
:1024300088607047AA490A6890630868C0680222E9
:1024400009681043C860704730B4A54C25682862FD
:1024500020684162206882622068C362216801208E
:1024600008632068406BC10707D000BF00BF00BFF2
:1024700000BF2068406BC107F7D1800730BCC01790
:10248000704797480168C968022200689143C1609B
:10249000704793480168C968012200681143C16010
:1024A000704710B48E4B1C6820621868416218682F
:1024B00082621968012008641868406CC10707D05F
:1024C00000BF00BF00BF00BF1868406CC107F7D154
:1024D0004007800F01D00020C04310BC70478048E7
:1024E0000168C968006849084900C16070477C48B4
:1024F0000168C968042200681143C1607047027C0A
:10250000017B9206920A1143754A13689965136814
:102510000168596213684168996213688168D962D9
:102520001368012119651168496DCB0707D000BFF9
:1025300000BF00BF00BF1168496DCB07F7D113681A
:10254000DB6D83821368DB6D1B0CC38213681B6E0B
:10255000038313681B6E1B0C438313685B6E8383BA
:102560001268526E5200520CC2838807C01770471F
:102570005B480168C968042200689143C1607047E4
:1025800057480168C968082200681143C160704754
:1025900030B4534C2568AA672268106220684362F1
:1025A000206881622168012008672068406FC107A8
:1025B00007D000BF00BF00BF00BF2068406FC10749
:1025C000F7D14007800F01D00020C04330BC7047D6
:1025D00043480168C968082200689143C160704798
:1025E00010B40378C278194643783D4C1B02194356
:1025F00083781B0419431206114310222368D1412A
:1026000080339961011D0A7810464A7812021043FE
:102610008A78C9781204104309060843D8612068F3
:10262000C068202108432168C86010BC70472C4A4C
:1026300013681862106841621168012080310861D6
:102640004869C20706D000BF00BF00BF00BF48698D
:10265000C207F8D14007800F01D00020C043704767
:102660001F480168C968202200689143C160704713
:102670001B480168C968102200681143C160704797
:1026800030B4174D5B1F2C688034A3602B68186230
:102690002868426228688162012020606068C10762
:1026A00006D000BF00BF00BF00BF6068C107F8D1FF
:1026B0004007800F01D00020C04330BC704708485D
:1026C0000168C968102200689143C160704700002A
:1026D0000C81010040003412010034120000341259
:1026E0001081010010B51F4902200A6810650868B2
:1026F000012202660B68102058670B681A4858665A
:102700000B680020986608688030826090234360E0
:10271000436813434360FF200A680330106609686A
:102720000866032000F046F80021032000F021F89D
:10273000002010BD10B5032000F046F80948FF2125
:1027400002680131116602680021116602681021D9
:102750009167006802214165002010BD03490020F7
:1027600008707047FC80010006100000D8080020A7
:1027700070478207D30EFF229A409B1D99400307A2
:102780001B0F9B089B00002808DA2F4800681818C8
:102790004369114093430B43436170472B480068E2
:1027A0001B180320000218180368114093430B43C1
:1027B00003607047C206D20E01219140234A4009AE
:1027C0001268800011507047C206D20E012191405C
:1027D0001E4A4009126880008018803001607047EE
:1027E000C206D20E01219140184A400912688000A9
:1027F0008018FF3081300160704714490968086013
:102800007047124909688031086070470F480068B6
:10281000006870470D490968FF31813108607047D1
:10282000094800688068704707490A689268096823
:10283000886010467047044A12689268103083001E
:10284000D058D15070470000EC800100E8800100B2
:1028500010B502210C20FFF78CFF10BDB5480168B0
:102860008A68B54903680A439A600268D2680068BA
:102870000A43C260704710B4AE4801688B680122F9
:102880001203AE49934304680B43A3600368DB68FB
:10289000006893430B43C36010BC7047A84881B0E5
:1028A0000168096F8905FBD40168896EC90707D0E3
:1028B000016880314A6800924A68009B9A42FBD0C6
:1028C0000168096F890502D402689E491166006893
:1028D0009D49816601B0704799498D220B6892012C
:1028E0009A660A68126F0B68DA66002800D1012028
:1028F00000043722000A12068218086842669122F4
:102900000868120680300260C8E78D4881B001680F
:10291000096F8905FBD40168896EC90707D0016872
:1029200080314A6800924A68009B9A42FBD08D2110
:1029300000688901816601B070477E480068806840
:10294000C00401D4002070477D480068806EC00735
:10295000C00F70477A480068406E0002000C704754
:102960007748006880304068704710B50C20FFF74A
:1029700037FF0C20FFF71EFF7149022009684867E6
:1029800010BD10B56E490320096888670C20FFF759
:102990001BFF0C20FFF724FF10BD6C4A116810606C
:1029A0000846704710B566480168096F0068C1663F
:1029B00066480068002800D0804765480168012209
:1029C00012031143016010BD60484068704770B544
:1029D000584801688A68584903680A439A6002683F
:1029E000D26800680A43C260554C0320216888679A
:1029F0000C20FFF7E9FE0C20FFF7F2FE00F09CF937
:102A0000544D04212868803081605349C16072B6FA
:102A10008D202168800188662068006F2168C86663
:102A200021684E484866206891210906803001607F
:102A3000FFF734FF012029684002086662B670BDC6
:102A400038B572B63E490868006F8005FBD4086847
:102A5000806EC2073A4800688030002A05D042687C
:102A600000924268009B9A42FBD08D220968920135
:102A70008A66384901220B6852041A6662B60968F0
:102A8000FF31FF31023149682A4D00293BD0324ADB
:102A90002E4C511AA1602A6892692B681207DB69D3
:102AA000120F1B071B0FD218121D91402C4A2D4BE1
:102AB0008A189A4227D240682B4A101A1204E06002
:102AC000904220D2000411F01AF9FF21CA31484384
:102AD0007D21C9002061884200D20846234B9968B5
:102AE000002900D19860596819609A685A60986006
:102AF00091421AD9814205D9824201D9626002E02D
:102B0000606000E0616000F028F9286881680120B9
:102B100000030A4A81432B68114399602968C968F8
:102B2000814328681143C16038BD8142EAD882429E
:102B3000E6D8E3E70C8101000010341200003412E3
:102B40001881010071C0000041230000DC08002052
:102B5000D008002014810100FFFF000000FFFF37B4
:102B6000CF8AFFFF2F6E160001000100E40F002046
:102B7000144801688968144A006811438160134849
:102B800001684969012252021143026851610168DA
:102B90000969042211430268116101680969102260
:102BA00000681143016170470849096888607047EF
:102BB000BFF34F8F054906480968C860BFF34F8FC0
:102BC000FEE700000C81010004003412EC800100DB
:102BD0000400FA05264801688968264A00681143FE
:102BE00081602548016849690122114302685161E9
:102BF0000168096B032212039143204A11430268C2
:102C000011630168096A03680A091D4912010A4330
:102C10001A621C4A8B1E1268803253640068016578
:102C200070471548006800697021084070471248D5
:102C30001549026811630268144951630168496CBF
:102C4000012252049143026851640168496C104AA0
:102C50001143026851640168496C01221204006842
:102C60009143416470470448006840687047000021
:102C70000C810100040034120081010000205FA0DB
:102C800003005FA008810100C08C5FA095995FA040
:102C9000FF030000022801D300207047A24B8200EE
:102CA00098589950704770B5A04C2068006F9E4DA1
:102CB000C00706D021680120C8662868002800D017
:102CC00080472068006F800706D521680220C8660B
:102CD0006868002800D0804770BD10B5944801682E
:102CE0008A68944903680A439A600268D2680A4372
:102CF0000168CA608D4902220B681A650C680123BD
:102D000023660C680323E36609684A6501688968DD
:102D10008023894A994304681143A1600168C96806
:102D2000006899431143C1600920FFF743FD022168
:102D30000920FFF71EFD10BD7D4801688A687D49A6
:102D400003680A439A600268D26800680A43C26056
:102D50007649022009680865704710B4734902205B
:102D600009684865724801688B688021724A8B4304
:102D700004681343A3600368DB6800688B43134354
:102D8000C36010BC70476A48006880680006C00FC6
:102D9000704766480168096F890504D503210068FA
:102DA000090201667047FF21006801310166704722
:102DB00070B55E4D2868C06F800703D52968032071
:102DC000486702E029680120486700F0DFF85849A9
:102DD0000A68926909681207120FC969D040090789
:102DE000090FC840052110F08AFF2C688521890051
:102DF00080340009216011F0C2F8504A504B11F0A4
:102E0000C1F811F071F860602868006F800504D582
:102E1000032029680002086670BDFF202968013080
:102E2000086670BD41480168096FC90504D50321D2
:102E300000680902016670470121006849020166C5
:102E4000704770B5394D2A68D26FD20703D02B680E
:102E500003225A6702E02B6802225A677D23FF2271
:102E6000DB002D3258434A43401AA0214843022632
:102E7000002480180A2110F042FF2D490A68926947
:102E800009681207C969120F0907090F5118C840CC
:102E9000052110F034FF2B49884204D9641C4008F6
:102EA000E4B28842FAD83202224310210A43296848
:102EB00080318A60C8602868006FC00504D503208F
:102EC00029680002086670BD012029684002086672
:102ED00070BD16480168096F890304D50321006895
:102EE0000904016670470121006809040166704702
:102EF0000E480168096FC90304D50321006809045D
:102F0000016670470121006849040166704707485F
:102F10000068006FC005C00F704704480068006F6C
:102F20008005C00F70470000F008002014810100E8
:102F30000C81010080003412000034127B14AE4773
:102F4000E17A843FFFFF0000234900200A68906077
:102F50000968086021494860704710B51E4C216817
:102F600048602168002088600221401EFFF701FCB4
:102F700021680720086010BD174900200968086013
:102F8000704716480188491C0180704713488068C3
:102F90007047F8B5114E0027044637807D21C900DF
:102FA000B06810F0ACFE0C4D401E296848602868DF
:102FB00087600221C81EFFF7DCFB29680720086034
:102FC0003088A042FCD328680760F8BD0449484314
:102FD0000249886070470000E4800100F808002082
:102FE00040420F00704770B5294C05468D2021687E
:102FF0008001886621680320C866216825484866E4
:1030000021682548086620682449803001602168CD
:103010002348886602210020FFF7ABFB0020FFF762
:10302000C9FB002D05D02068806E1E490843216829
:10303000886670BD10B516480121026891678D2120
:103040000068890181660020FFF7BEFB0020FFF7C2
:10305000C7FB10BD0E4901200968486770470C493D
:10306000012009688867704709490B4809680866A4
:103070007047074881B00268074911660168096F07
:103080000268D1660068006F009001B070470000D0
:10309000F48001000738393771C00000009C1C9192
:1030A000462300004123000070B5FF4C0025012697
:1030B0002570B60265703146FC4810F01EFE3146A0
:1030C000FB4810F01AFE6560A5703821F94810F031
:1030D00014FE3821F84810F010FEE5705821F7482A
:1030E00010F00BFE5821F64810F007FEA56070BDE9
:1030F000ED488078002800D001207047EA48C07869
:10310000002800D001207047E7484078002800D010
:1031100001207047E948704770B5EA4DEA4E044611
:1031200001462A783078E54B10184200184610F016
:103130007CFD28783278E24B801842002146184600
:1031400010F073FDD8490120C87070BDD648806862
:103150007047D6487047F1B5D34E3178002901D079
:10316000DA4800E0DA480029047801D0D94800E0C4
:10317000D948274605786F43FFF7E4F829462046EB
:10318000FFF743F9C949CA4A0846009BFFF75CF9B3
:10319000FFF7EBF87A00C648009910F046FD0120D1
:1031A0007070F8BDF8B5C04D044601462878BF4B95
:1031B000C64E002801D0327801E0C54A1278C54FCA
:1031C000002801D0387801E0C3480078424352001B
:1031D000184610F02AFD2A78B5482146002A01D069
:1031E000337801E0BA4B1B78002A01D03A7801E02D
:1031F000B94A127853435A0010F017FD0120687045
:10320000F8BDA9484068704770B5B44C05462078B1
:1032100029464200A74810F008FD207829464200C0
:10322000A54810F002FDA0490120887070BDF0B5DE
:10323000FFB09D4DFFB091B068780990A8780890D4
:10324000E8780790FDF734FF0E90FEF7CAF80D906E
:10325000FDF732FF0020FDF78CFB0C90FEF7DDF848
:1032600000240127069403F0E7FE01280FD06D46E5
:103270002846FEF775FA00287DD0284604F059FB51
:103280000298002820D00898002803D01CE00120D4
:10329000069070E1002C1ED0029EFFF753F88F4D70
:1032A00001212878FFF7B1F882493346824A08465F
:1032B000FFF7CAF8FFF759F82878314642007E48F0
:1032C00010F0B3FC78488770019800287BD00998EB
:1032D000002811D0AFE0814D029E2878314642008F
:1032E000744810F0A2FC287831464200724810F071
:1032F0009CFC6D488770E7E76B48019D00780028CB
:103300003CD169484668002E20D070480178714849
:103310000B9101780A91FFF715F80A990B98FFF7BE
:103320007DF8294632460846FFF7BBF8FFF71DF83F
:103330006B480078022802D1304604F0D8F868487B
:103340000078092802D1284604F0D1F865480078B1
:10335000012813D9624E3078042802D1284604F09F
:10336000C6F829460FA811F0D7FC05463078052885
:1033700004D1284600E0FBE004F0B9F8002C06D0A8
:10338000494A0A95107800282DD050492CE0464E25
:10339000464B30782946002801D04C4A00E04C4A80
:1033A0000028127801D04B4800E04B480078424397
:1033B0005200184610F039FC294635783C4B002D58
:1033C00002D0424801E036E04148002D027801D0A9
:1033D000404800E04048007842435200184610F050
:1033E00024FC777020E03A4900280E7801D0394853
:1033F00000E039483146057869430B91FEF7A2FF9A
:1034000029463046FFF701F82849294A08460A9B11
:10341000FFF71AF8FEF7A9FF0B9925484A000A9909
:1034200010F003FC204847702D480078032802D193
:103430001E4804F05CF80498002875D0079800280E
:1034400072D11948049D0078002828D11648866852
:10345000002E24D01B4801781B4800780818401C17
:1034600040080B9002200A90FEF76CFF0A990B9817
:10347000FEF7D4FF294632460846FFF712F8FEF75A
:1034800074FF19480078022802D1304604F034F95C
:1034900015480078092802D1284604F02DF9002C9F
:1034A00043D02E46074821E004090020F00F0020F9
:1034B000F0130020F01700202818002060180020CA
:1034C000B81800201B0900201C0900201909002041
:1034D000160900201A090020170900201D090020E4
:1034E00089090020180900208E0900200178E6488B
:1034F00000780D18FEF726FF681C40080221FEF731
:1035000084FFE3493346E14A0846FEF79DFFFEF794
:103510002CFF6A003146DD4810F087FBDD48C7709C
:10352000DD480078032818D01AE0DC48D84B027830
:10353000D5482946007810184200184610F075FB4F
:10354000D64AD14B12781B78D048D218294652005F
:1035500010F06BFBCF48C770E2E7CD4804F0CCF821
:10356000FEF72AF9641C042C05D2FDF756FF7AE613
:1035700000F07DFE77E6FDF79FFD0C98FDF7F9F969
:103580000E98002807D00D98002802D0FDF745FFBF
:1035900001E0FDF72CFF0698002806D0BD490998E8
:1035A0004870089888700798C87006987FB07FB0F8
:1035B00011B0F0BD10B50024FDF710FFB54982072A
:1035C00009D54A78002A00D10124420703D58A7818
:1035D000002A00D10124C20705D0C00603D5C8784F
:1035E000002800D101240020002C02D00870FFF731
:1035F0001EFE10BD08B50F2100F0D2FE012804D137
:10360000FFF7D8FF009000F0E0FFA24841780029C2
:1036100007D0C178002904D08078002801D001208B
:1036200008BD002008BDE5E770479A4900204870B2
:103630008870C870704710B50124A40221469848CC
:1036400010F05BFB2146974810F057FB10BDFFB50B
:10365000904981B009780A98002901D0924900E088
:103660009249C71A0C781E4625467D436643FEF7ED
:1036700069FE39462046FEF7C8FE019970004718DA
:1036800088493B4646188649324640180146FEF7AF
:10369000DBFEFEF76AFE6A003946304610F0C5FAD6
:1036A0007C4801214170084605B0F0BD002800D0DB
:1036B000012078494870704776494860704710B5D6
:1036C00038217B4810F019FB38217A4810F015FB9F
:1036D00010BD77487047002800D001206D498870E0
:1036E000704710B558216A4810F007FB5821674809
:1036F00010F003FB10BD002800D001206549C87000
:10370000704764498860704710B5002261490028FD
:103710004A708A70CA7000D001200870FFF787FDD8
:1037200010BDF0B50124A4028BB021465C4810F016
:10373000E4FA21465B4810F0E0FA5821544810F0B2
:10374000DCFA5821514810F0D8FAFDF747FE04463C
:10375000FDF7B2FC0020FDF70CF90890FDF75DFEC7
:1037600000200790069003F067FC012843D06846CC
:10377000FDF7F6FF002849D0684604F0DAF8A00704
:1037800013D54748019E84460246474805784A4873
:10379000017800204D4308D04100735A575A401C0D
:1037A000DB1967467B528542F6D8E00719D0E00660
:1037B00017D53A4936480A783349049E0978844631
:1037C0005118491C4D08022200216B0009D05543B5
:1037D0004A00B35A875A491CDB196746BB528D42CF
:1037E000F6D8FDF7E9FF0798401C0790102804D28F
:1037F000FDF713FEB7E701200690FDF75DFC089882
:10380000FDF7B7F80698002803D037E000F02FFD49
:10381000A9E7A00717D5224809900890224800255B
:1038200007782548007847431020002F0BD90790D0
:1038300008986E00805F079910F06FFA09996D1C67
:103840008853BD42F4D3E00718D0E00616D51048DF
:10385000089007901148102701780B480024007841
:103860000E18002E0AD907986500405F394610F0FF
:1038700054FA0899641C4853B442F4D306980BB028
:10388000F0BD0120704700001C090020B81800207E
:1038900060180020040900208E0900201B09002068
:1038A000F00F0020F0130020190900201609002055
:1038B000F0170020281800201A090020F3B5002274
:1038C00084B00292019200920223865EC35E154686
:1038D0001446F11A00D5991B8EB205993C23490074
:1038E0000F18403F3E21795EFB5ECF1A00D55F1A6C
:1038F000B9B2082E06D3082904D301218E460599B2
:10390000891E03E000218E460599491E0BB27146BF
:103910009E452DDC4E000396875F029EBC46B74253
:1039200002DD0297CFB2009771451DDD039F3F185E
:103930003E46403E3E27F75F6646BE1BF61D0E2EF6
:1039400003D8521CD2B299420ED195420BD21546E1
:10395000994203D10E2E01D84CB201E04C1E64B244
:10396000621B52B201920022491C89B29942D1DDF8
:103970000598001F854208DD01990098884204DB04
:10398000A04202DC002006B0F0BD012006B0F0BD70
:1039900070B5FF4AFD49147806466200121809788E
:1039A0001046FFF78BFF054621463046FFF786FF9E
:1039B0000022F849002D03D0002801D00A7008E049
:1039C0000878401CC0B208700A2802D90A7000208A
:1039D00070BD012070BDF3B58DB00E990B9106A995
:1039E00009910D9802A9089103A9079104A90591CD
:1039F000E649002309780A91E549C35E0A786E46D4
:103A00005100455E00210C9132833181B2818E4696
:103A1000318201219C462C46012A29DD4E00009668
:103A2000875F674500DDBC469F4202DA059E3B4644
:103A30003180009E3718403F3E26BE5F009F0196B2
:103A4000C75F0097F61B01D5019EBE1B37B20C9EC7
:103A5000B74209DD0C97019F009EB74201DD4F1E62
:103A600000E00F46089E3780491C09B29142D5DB21
:103A70000A9E511CB61801968E4224DD4A00865ECD
:103A8000AE4200DD3546A64202DA3446079E31805A
:103A90001718403F3E26BE5F0096825EB61A01D5DB
:103AA000009E961B36B2764508DDB646009E9642CD
:103AB00001DD4A1E00E00A46099E3280491C019A37
:103AC00009B28A42DADCB4482A1B00680124FF30BC
:103AD0000130C17F8A4209DD6246D21A8A4205DD81
:103AE000817F714502DA0C9A914223DB0999002209
:103AF0008A5E0B9952008A5E1C21415E8A4219DC63
:103B000007980022825E0B985200825E48428242F1
:103B100010DB089A0023D35E0B9A5B00D25E8A42C8
:103B200008DC059900228A5E0B995200895E814269
:103B300000DB0024002C19D06D4610210C20695E9A
:103B4000285E0191009008231822EB5EAA5E0E9970
:103B50000D9800F066FA0025ED43012800D12C46AF
:103B60000D98FFF715FF002800D12C4620460FB016
:103B7000F0BDF0B5884E0446FF2031682530405C2A
:103B800089B000280ED0FF310131088F002809D0FC
:103B9000FDF767FC3168FF312131097910F0AFF88A
:103BA000002902D0012009B0F0BD079401F05CFDAE
:103BB0000490FFF7CBFA044630683821FF3001301B
:103BC000415E06913A21415E0498059100286BD030
:103BD00072480078102802D1049803F08DFD6B48DC
:103BE000002503786A48002C027811D000209F1825
:103BF0000ED03168FF3101310E8D0021615EA41CB1
:103C0000002900DA4942B1424FDC401C8742F4D817
:103C1000002001920546039302920090A900684695
:103C20004058002686464200079802AF1218935F5C
:103C30007F580120921CB4461C46012F0DD900214B
:103C4000515E921C8C4201DA0C4684468B4201DDA7
:103C50000B460646401C8742F1D8E01A01B206988E
:103C600081421EDB7046604442000498825A7046CE
:103C7000801943000498C05A101A081A00B200288C
:103C800001DA424200E00246002900DA49428A4253
:103C900007DA002800DA40420599884201DA002557
:103CA00003E06D1C022DB9D30125002D01D101F0D7
:103CB000E6FC284609B0F0BDF7B50446384888B0A0
:103CC00005783848007805900620069000200646C2
:103CD0000390009001900290FFF73BFA049006F0E9
:103CE000A2FD002810D00BF06AF808280CD10020A3
:103CF000024601466943049B49005A52099B401CF5
:103D000080B25A520428F4D905980022002838D9E4
:103D100006988100401886460020002D2CD91146B7
:103D200069438C46614609180904C90B615E002984
:103D300001DA4B4200E00B46734519DD002902DD34
:103D4000761C36B207E0039B5B1C1BB20393002971
:103D500001DA4B4200E00B46009FBB4208DD002920
:103D600001DA4B4200E00B461BB200930192029035
:103D7000401C80B2A842D5D3521C059892B2824210
:103D8000CAD3019A02986A4310180DE01B0900205B
:103D90001C09002010090020040A00208E090020C0
:103DA000160900201709002001904000215E002024
:103DB00086466D1EA8B200900298AC4600281ED020
:103DC00013189BB200290BDD5B00E75E1B19403B1B
:103DD0003E255D5F7B1B0ED5401E80B286460EE001
:103DE000002908DA5B00E75E1B19403B3E255D5F5A
:103DF0007B1B002BF0DC401E0004000CE0D102987D
:103E000060451CDA13189BB200290ADD5D00635F70
:103E10002F1902257D5F5B1B0DD5401C80B20090E1
:103E20000DE0002907DA5D00635F2F1902257D5F31
:103E30005B1B002BF1DC401C80B26045E2DB039889
:103E4000304369D0002E02D10398002862DC71460D
:103E500051180C040099E50B51180B040198049CAF
:103E6000099E00040499645BC00B775B0A5A0999A8
:103E7000DD0B095AA446E419765B5018049B041B19
:103E80005B5BCF1B9D19401B20186446141B891BCC
:103E9000D21A7918A21809B200B212B2002901DAB6
:103EA0004B4200E00B46002801DA444200E00446A1
:103EB0001B1B09D5002800DA4042002901DA4B42D9
:103EC00000E00B46C01A08E0002901DA4B4200E08E
:103ED0000B46002800DA4042181A002901DA4B424A
:103EE00000E00B46002A01DA544200E014461B1B96
:103EF00007D5002A00DA5242002900DA4942511A55
:103F000006E0002900DA4942002A00DA5242891A02
:103F1000884203DD0020C0430BB0F0BD01200BB090
:103F2000F0BDF1B584B00020AD4C00900190FF21B0
:103F300020682531095C002970D0FF300130008EE7
:103F400000286BD0FDF78DFA21460968FF31213139
:103F500009790FF0D4FE002960D101F010FB029026
:103F600000285BD09F480078102802D1029803F007
:103F7000BEFA9D48002506789C482C460778049890
:103F8000002F1ADD0022825E0121801C012E11DD2E
:103F90000023C35E801C9A1A12B2002A00DA524231
:103FA00012B2AA4202DD154600940191491C1A463C
:103FB000B142EDDB641CBC42E4DB89480268FF329D
:103FC0000132108EA84229DC0098019970434018F4
:103FD000049940000B5A41184039C98F591A029B65
:103FE00009B21C5AC0184038C08F201A081A00B2F3
:103FF000002801DA434200E00346002900DA494282
:104000008B420BDA002800DA4042518E884205DAF2
:1040100001F035FB002005B0F0BDFFE7012005B041
:10402000F0BDFFB50F460446724971480D7800781F
:104030008DB040190A90401E0790681E05900F9899
:104040000021069504914000205E0C9010984000DD
:10405000205E0B9000200390029109900090019047
:104060000890FFF757F80646109800280BDB0B99CD
:1040700089104200A25E8A4201DA049003E0401EE9
:1040800000B20028F5DA1098A8420BDA0B998910D3
:104090004200A25E8A4201DA059003E0401C00B2B1
:1040A000A842F5DB0F98A8420BDB0C99891042005F
:1040B000A25E8A4201DA069003E0401E00B2A842E6
:1040C000F5DA0A990F9881420CDD0C998A104100AB
:1040D000615E914201DA079004E0401C0A9900B247
:1040E0008142F4DC07990698884226DA4100CD190E
:1040F00002237A5EEB5ED51A00D59D1A039A02233D
:10410000AA1812B203928D19725EEB5ED51A00D511
:104110009D1A029A0223AA1812B20292625E09192B
:10412000CB5ED11A00D5991A099A401C891809B298
:104130000991079900B28842D8DB05990498884212
:1041400026DA4100CD1902237A5EEB5ED51A00D53E
:104150009D1A019A0223AA1812B201928D19725E59
:10416000EB5ED51A00D59D1A009AAA1812B20092D9
:10417000635E091902228A5E991A00D5D11A089A3B
:10418000401C891809B20891059900B28842D8DB11
:1041900003990298411A09984010814219DC01994B
:1041A0000098411A08984010814212DC06F067FB23
:1041B000002811D116984000325E09480168FF209E
:1041C0001D30085E824204DC17994900715E81420D
:1041D00002DD012011B0F0BD002011B0F0BD0000E3
:1041E000040A002089090020160900201709002070
:1041F0001B0900201C09002010B504F0C7FC04F0C6
:104200003FFD002010BD0000F5480078704710B554
:10421000F3480078022803D0052804D0002010BD00
:1042200006F051FA10BD03F0EDFC10BDEC4908702A
:10423000704710B50446062C18D220007844007947
:10424000001887441102060E110A084600F0D8F93A
:104250000AE0084606F02BFA06E0084603F0C6FC22
:1042600002E0084605F0E8FFDD48047010BDDD49B6
:1042700000200968496EC90503D510B5FDF727FE72
:1042800010BD7047D74900200968496EC90503D59C
:1042900010B5FDF732FE10BD7047D2490020096805
:1042A000496E890503D510B510F0FAF810BD7047B6
:1042B000CC4900200968496E490503D510B510F0B6
:1042C00029F910BD7047C6494878002801D0401E22
:1042D0004870704770B5C44801688031C86CC04CE4
:1042E000820707D0C14A104388646078002801D152
:1042F00001206070BE4800688068BA4D8007296858
:1043000007D4BC4800684069C00702D06078002824
:1043100006D0496E0020C90508D5FDF7EEFD05E081
:10432000496E0020490501D510F0F4F8B249084261
:1043300004D02968496E0902090E617070BD10B57C
:1043400072B6FEF777FEFEF733FC10BD10B5FF2006
:104350004002FDF776FE72B6FEF76CFEFEF728FC13
:1043600010BD9F48006970479D48C06870479C49D0
:10437000486170479A484069704799498861704719
:1043800097488069704710B5964802681346118AAD
:10439000508AFF33FF3261334132FDF7BFF810BD61
:1043A000F0B58F4E99B00D46306104F050FBF060CF
:1043B000040031D02078B0706178F1708C46A37819
:1043C000411CFE22337111407171E278B271217982
:1043D000F17161793172894900270F704F7021782E
:1043E00071726146FDF799F9317AF079FDF7A7F915
:1043F00008A9204604F047FB608A7769002801D0AD
:1044000047433F0B7648012180690790608B090381
:1044100000280BD005900AE072480068406EC00585
:1044200001D5FDF76AFD002019B0F0BD059100200F
:104430000691A90700D51120690701D50A21084373
:10444000290701D504210843E90701D020210843A9
:10445000666A69460640089800900C98019010988A
:10446000029000200490099803903046FCF711FF59
:10447000B00757D504F01FF8050024D004F031F838
:1044800047433F0B29460020FCF79AFA218A00296E
:1044900002D00020FCF7ECFA04F042F80799082556
:1044A0004143080B0121C9024018010A01221046AC
:1044B000A840084201D16D1EF9D5A07B2D1F002810
:1044C00005D0401E06E0A589002DDBD1DEE70020E7
:1044D000FCF7B2FB0790E07B002801D0401E02E011
:1044E0000020FCF7F5FB07994919042903DD6D1A33
:1044F00004212D1D03E0002901DA6D1A0021451960
:10450000042D03DD2D1FEF40042504E0002D02DA09
:104510006842874000250020FCF7ADFB29460020BB
:10452000FCF7EFFBF00726D0A18A002902D001207A
:10453000FCF746FA258B002D07D029460120FCF711
:1045400097FA29461120FCF793FAA57D002D07D094
:104550000120691EFCF78FFB691E1120FCF78BFB05
:10456000E57D002D07D00120691EFCF7CAFB691EFE
:104570001120FCF7C6FBE07A002802D00001FCF70E
:10458000A6F90A9803F051FC0B98002807D00446BE
:1045900013483B46C2788178204603F07CFC3846BD
:1045A000069A059903F00AFD0D98FFF785F80E9815
:1045B00000F060FFF00605D51198FFF7A2F81298F9
:1045C00000F0E8FF012019B0F0BD10B5FCF7D5FEF2
:1045D00003F035FC02490020C860012010BD000036
:1045E00014090020040A00200881010000005FA0D7
:1045F0000C81010000810100080003001E09002059
:10460000F94948707047F8484078704730B4F74827
:10461000F74A0168914213D1FF2241681132914259
:104620000ED80022846803461146A50809D0A408C4
:104630008D005D59491CAA188C42F9D8002A00D077
:10464000002030BC704710B5E848FDF7FAFC10BDFB
:10465000E549012048707047E34900200870704721
:10466000F3B5E1B000203C904A90499072B6FCF757
:10467000B5FE0546FEF787FB002809D0FEF747FC8C
:104680004A90FEF726FCFEF748FC4990FEF730FC06
:10469000FCF7EEFDFCF70CFD5390FCF7A2FE5290E8
:1046A000FCF70AFDFEF749F95190FEF72EF9932029
:1046B0004001FEF7AFF862B6002130AC8A0000205E
:1046C000491CA0500629F9D3CA4901200968800372
:1046D000AA070F180126002A05DAE7210901384642
:1046E00030960FF00AFBC34AC3481268E907151851
:1046F000002910D00721490228460FF0FEFA0120B8
:10470000FBF70DFE002800D032961120FBF707FEC4
:10471000002800D03396309800282CD00020FCF7D9
:104720007AFA0090B548694600780871B448007874
:10473000012801D9B34800E0B3480078487100204F
:10474000FCF76DFB002801D00020C04303906946B0
:1047500062988871A448808808810020FCF7D0F90D
:1047600069464881A34805970168069101680120C0
:104770004003081807903198FF2700282AD000200E
:10478000FCF749FA08909D4808AA00781071567104
:1047900000200B90977194486A468088108500200D
:1047A000FCF7AEF96A4650855079702102464A43BB
:1047B00090490B68D318012292039A180D926A4609
:1047C00012790968424350004018012149030E90B4
:1047D00040180F90329800282ED00120FCF71BFAC9
:1047E0001090FBF700FF002801D0884800E08848BF
:1047F00010AA007810710120FCF71EFA31468140A2
:1048000010AA51710120FCF7F5FAC043139010AAC9
:1048100075489771C08810810120FCF771F910AAC2
:10482000508174481595E7220168D20089181691C5
:1048300000687849401817903398002831D011202B
:10484000FCF7E9F91890FBF7CEFE002801D070487C
:1048500000E06E4818AA007810711120FCF7ECF9FE
:104860003146814018AA51711120FCF7C3FAC043A8
:104870001B9018AA97715C4810AAC0881085112057
:10488000FCF73EF910AA50855A48634A0168891816
:104890001D91624A016889181E910068604940189C
:1048A0001F900120FDF7ADF90120FCF7D1FA4F90E0
:1048B0000020FCF743FC4E900020FCF734FC4D90A8
:1048C0000020FCF756F85090FCF7A7FD002042901E
:1048D0004190389039903C9800287DD102F0ACFB93
:1048E000012879D04298802876D85AA8FCF738FF5A
:1048F000002872D05AA803F01CF84198401C41903F
:104900006CD0002041904298401C429000208300CF
:10491000012154AA401CD1500628F8D33898002809
:1049200006D001285FD002287CD0032854D124E38C
:104930000020369039980422101A8446369830A9FF
:1049400080004790085800286DD03698399A410168
:104950006846081800213F910168449101793D9112
:10496000417937910821415E409141693E918169C9
:10497000C06843906046002A1ED000287CDB379830
:104980000025002877D96046012208308240604621
:104990003B920122C01D824046920120439AA840CA
:1049A000104000D001203A90284670267043002223
:1049B0003E9E1446861986E03798002500285AD96D
:1049C0000120439AA840104000D001203A900020D6
:1049D00004462A46702602E0F9E2FFE2F4E272435E
:1049E0003E9E961940E086E03009002000F3010069
:1049F000544352461C810100704E000019090020EA
:104A0000180900201A090020170900201B0900209E
:104A10001C0900203827000070550000B80A00006B
:104A2000B82A00007DE15FE00122449B82401A42E7
:104A300017D082003B920027CF5F409BB25AFB1AEF
:104A40003A9F891C641C92B2002F00D05B42002B5D
:104A500002DD01231B031A430123DB021A433B9BA4
:104A6000F250401C1C2802D23D9A9442DCD3379865
:104A70006D1C8542A4D32EE032E00120449B90407F
:104A800018421DD0900045900027CF5F409B305AC0
:104A9000FB1A3A9F891C641C80B2002F00D05B4235
:104AA000C70402D5002B02DB03E0002B01DD3B9B9A
:104AB00098436346002B01DD469B1843459BF0500D
:104AC000521C1C2A02D23D988442D6D337986D1CC2
:104AD000854200D261E76046002801D101203F9065
:104AE000479954AA3F9850503698401C3690062853
:104AF00000D223E743E20020369039980822101AAA
:104B00004C90369830A980004B900858002873D0FC
:104B10003698399A41016846081800214391057971
:104B2000417906683791837908213D93415E44912C
:104B300041693E91C3688169459340893D9B184016
:104B400046904C983A90002A1FD000287EDB002027
:104B500084463798002868D93A9A012090404090BE
:104B6000501E012282404892624601209040459AA0
:104B7000104000D001203B90604670235843002233
:104B80003E9B1446C0183F9079E000208446379839
:104B900000287DD9624601209040459A104000D0FF
:104BA00001203B9060467023584300223E9B1446F0
:104BB000C0183F9031E00120904030422AD0900050
:104BC0003F9B4090185A0027CF5F449B891CFB1ADB
:104BD0003B9F641C80B2002F00D05B42C7040CD501
:104BE000002B12DA0F231B02184001D0FF380138C6
:104BF00001231B03184308E08CE0002B05DD0F2385
:104C00001B02184001D0FF38013880231843409F11
:104C10003F9BD851521C1C2A01D2AC42CBD36046D8
:104C2000401C844637988445B4D331E0012090403D
:104C3000304221D090003F9B4790185A0027CF5F09
:104C4000449B891CFB1A80B2641C00E025E03B9F5A
:104C5000002F00D05B42C70402D5002B02DB03E02B
:104C6000002B01DD409B98433A9B002B01DD489BC4
:104C70001843479F3F9BD851521C1C2A01D2AC427B
:104C8000D4D36046401C84463798844500D26BE7F5
:104C90003A98002801DD439839E00020844637988F
:104CA000002832D9FF213D980131081A40083F9071
:104CB0003D9808433B9061467023594300203E9B3A
:104CC0000246CC1819E001218140314212D0810006
:104CD0003A91615A3F9F8BB2D9B279183B9F521CCF
:104CE0003940469FB94200D939461B0A1B020B4383
:104CF0003A996350401C1C2801D2AA42E3D3604673
:104D0000401C379984468842D5D3012043904B9963
:104D100054AA50503698401C3690062800D2F0E62F
:104D20002DE100203690800030A94C9008580028D2
:104D30007DD0399848903698082241016846081875
:104D4000002144910168469101793F9141793B915D
:104D50008179825E4092426947928669C2693E9239
:104D60004589C0684590FF200130441A48980D409D
:104D7000C00715D0002037903B9800286FD937998D
:104D8000012088404599084000D001203D90379887
:104D900070214843002247993A9240184390D0E04E
:104DA0000020FCF755F807463F993B9848434000E0
:104DB000C01C8208920031463E980EF036FF3846FD
:104DC000FCF746F8002037903B98002847D93799E0
:104DD000012088404599084000D001203D90379837
:104DE000702250430021479A3A9180183E9044E047
:104DF0000120469A884010423CD03A980022401C3C
:104E00003A90B25E4098B61C131A3D98002800D024
:104E10005B4288003E9A4390105A82B21005D7B286
:104E2000000FBC46D70403D5002B03DB05E09DE053
:104E3000002B02DD63461B1B01E063461B19AB42DE
:104E400006DD0F2802DA0023401C0AE02B4608E0AA
:104E5000002B06DA002803DD2B46401E01E07BE034
:104E6000002301273F033A40000202431A43439BB9
:104E70003E98C250491C1C2903D23F9A3A9890424E
:104E8000B6D337983B99401C379088429FD363E054
:104E9000012046999040084250D03A980021401C89
:104EA0003A903E98415E4098091A3E98801C3E9088
:104EB0003D98002800D049420023F35E4098B61C7C
:104EC000181A3D9B002B00D04042002901DA4B42CA
:104ED00000E00B46002800DA404298422ED99000AC
:104EE000439B4B90185A83B21805DFB2000FBC46A3
:104EF000DF0402D5002902DB04E0002902DD61465F
:104F0000091901E06146091BA94206DD0F2802DAF2
:104F10000021401C09E0294607E0002905DA0028A5
:104F200002DD2946401E00E0002101273F033B40EF
:104F3000000203430B434B9943984350521C1C2AD5
:104F400003D23F993A988842A2D337983B99401CA4
:104F50003790884200D212E74898032801D244983B
:104F600001E0012044904C9954AA50503698401CBE
:104F70003690062800D2D6E601E001203C900123BD
:104F8000002054A982008A58002A21D0401C0628FB
:104F9000F8D3002B1CD038981F2813D2401C014690
:104FA0000122389010468840619908420AD1389809
:104FB000401C3890032805D8014610468840619966
:104FC0000842F4D0002039903C98002803D00AE031
:104FD0003998401CF7E7FCF720FA7FE4FFF752F915
:104FE0003C980028F9D0FCF767F80020FCF709FE90
:104FF0004F98FBF72DFF4E98FCF7A0F84D98FCF763
:1050000092F85098FBF7B5FC5398002807D05298B7
:10501000002802D0FCF701FA01E0FCF7E8F9FDF7FF
:10502000B2FE002809D04A98002801D0FDF7B1FE51
:105030004998002801D0FDF7F5FE5198002801D0CD
:10504000FDF72CFC3C98002802D0002063B0F0BD96
:10505000012063B0F0BDF1B5FFB0FFB00020BEB0DD
:1050600006460290D3E0304603F0F1FC00287CD0E5
:105070000489FFA88430006F0440F748044274D0CC
:105080000F213046FFF78CF900286ED0FCF7A6F907
:1050900005460298002869D128460E210840FCF7F1
:1050A000E1F803210020FBF74FFE029800285DD1B4
:1050B000E0071BD0FC210F20FFF7D2FA0290FBF78C
:1050C000FBFF0298002851D1FFF74EF90746042054
:1050D000019003A80090FCF773FB2C20C157009AA5
:1050E000019803F0F0FC029800283FD16007800F80
:1050F0002BD0FEF716FB0290FBF7DEFF029800288C
:1051000034D1A0070FD5FEF724F80746FFF72CF996
:10511000034605203A0003D02D21595603F0D3FC55
:105120000298002870D160070FD5FEF712F80746E5
:10513000FFF71AF9034606203A0003D02E215956EC
:1051400003F0C1FC029800285ED1284611210840D6
:10515000FCF788F80298002856D1E00620D5FF21F8
:105160000F20FFF77DFA029001E04FE04CE0FBF7E3
:10517000A3FF0298002847D1FFF7F6F8074608205A
:10518000FFA91031019000910120FCF76EFB302047
:10519000C157009A019803F096FC0298002833D179
:1051A0006006800F30D0FEF7BCFA0290FBF784FF58
:1051B0000298002828D1A00613D5E80603D5FDF7EC
:1051C000A9FF074600E00027FFF7CEF803460920B5
:1051D0003A0003D03121595603F075FC029800289B
:1051E00012D1600610D5E80602D5FDF793FF00E066
:1051F00000200446FFF7B8F80A25220004D0322325
:105200001956284603F05FFCFFF7DFF9761C03F020
:105210001AFCB04203D90298002800D123E78F4935
:10522000002008700298002804D07FB07FB00020D2
:105230003FB0F0BD7FB07FB001203FB0F0BDF0B512
:105240008648CDB04578FEF7DFFF01287ED184483F
:10525000362102683420515E105E03F04CF8A80736
:1052600075D56C46FFF7D2F90026002807D01EC876
:105270006F461EC71EC81EC70FC80FC717E0FF2204
:10528000302120460EF012FD76480090FF201130AC
:10529000019030200290502004900020C0430396DB
:1052A0000596069607960B900A90099008906E4F07
:1052B0003846FCF7C6FE0598401C05906B48FFF782
:1052C000CAFE012803D1FEF7DCFA012817D007989F
:1052D0000022401C0790502004901F21022004F05F
:1052E0000CFF6C4603F08FFB002812D081690891F7
:1052F000C169099141690A91C0680B900FE02807C4
:1053000001D5A22000E0A12004900698401C069040
:10531000E7E70020C0430B900A900990089051489D
:105320000090FF2011300190302003960290002160
:10533000A268084692088300E358401C591882422C
:10534000F9D84E42FF22511C0CA801E02CE014E0D9
:10535000E6600EF0ABFC20680CABA268616847C346
:10536000204610300FC810AE0FC620340FCC0FC629
:1053700038460CA9FCF7C0FE0FE0E8070DD03C480A
:10538000FFF769FE012801D1FEF77BFA002804D15E
:1053900001221F21022004F0B0FEFEF746F9012190
:1053A0002A46084604F0A9FE01F042FE4DB0F0BDC9
:1053B0002A49888070472949C8807047F8B5012676
:1053C000FFF724F9002804D00069A12803D0A228FF
:1053D00001D00020F8BD002403F035FB002834D9AB
:1053E0001D4F204603F033FB002829D005893D429C
:1053F00026D00F212046FEF7D3FF002820D0E80753
:105400000CD0FCF705FA002808D1FF202246013015
:1054100002431E21022004F070FE0026E8060DD58E
:105420000120FCF787FA002808D10120224600035A
:1054300002431E21022004F060FE0026FFF7C5F89B
:10544000641C03F000FBA042CBD83046F8BD00201E
:10545000704700207047000033030000300900202F
:10546000040A00205443524600F30100770700006D
:10547000220200008C49002888607FD00A789207B9
:105480007CD4F0B5894AFFB01478894AFFB087B060
:1054900012788549874E0492CE600090FDF7B1FEE8
:1054A000029085480778854805788548017805A8E1
:1054B0000391012901D9019000E001960299002988
:1054C00055D0394669434A0005A800990EF0ADFB56
:1054D0003B4605AA00950299019810F0EFFD03984C
:1054E00001280FD9304601990FF016FCB04209D0BF
:1054F0006E496F4B0A7819784A430146520030468C
:105500000EF093FB684800230499C0681E460029EA
:1055100019D90025455F0121801C012C0FD90022DB
:10552000825E801C551B2FB2002F00DA7F423DB2F5
:105530009D4200DD2B46491C1546A142EFD304993C
:10554000761C8E42E5D35F480068FF300130808DC5
:10555000984202DD54480021C16053490222087874
:10556000104308707FB07FB007B0F0BD06E06F4316
:105570007A00009901980EF058FBB0E770474A484E
:105580008168002902D00178890701D40020704782
:10559000C068704744490028086164D00978C9068A
:1055A00061D4F0B583B0019047494848029105782D
:1055B000474800270478FBF711FFC00602D5FDF726
:1055C000C5FD07462E197200019902980EF02DFBB9
:1055D000002F08D00220029A761C009073083946EA
:1055E000104610F06BFD029900200A5E0123891C11
:1055F000012C0FD900268E5F891CB21A12B2002A24
:1056000000DA524212B2824200DD10465B1C324682
:10561000A342EFD300228A5E0123891C012D0FD9FA
:1056200000240C5F891CA21A12B2002A00DA52422E
:1056300012B2824200DD10465B1C2246AB42EFD321
:1056400020490968FF310131C98D814201DC02988E
:1056500001E00020029014491022486108781043AC
:10566000087003B0F0BD70470F480169002902D0EF
:105670000178C90601D4002070474069704711487D
:1056800009490068FF30213042798878401CC0B257
:105690008870824207D210B5002088700121084628
:1056A000FEF7C7FD10BD7047300900201609002025
:1056B0001709002010190020190900201A090020DC
:1056C00018090020040A0020101D00201B090020DA
:1056D0001C090020704700207047580708B5400F8C
:1056E000012805D16946087002460A2001F083FCB2
:1056F000002008BD580708B5400F012806D100203A
:105700006946087001220A2001F075FC002008BDDE
:10571000580710B5400F012801D1FEF710FE0020F8
:1057200010BD580708B5400F012806D1032069466F
:1057300008700122002001F05EFC002008BD58071F
:1057400008B5400F012806D10B20694608700122D8
:10575000002001F050FC002008BD580708B5400F9C
:10576000012805D1694608700246002001F043FC7B
:10577000002008BD1FB5580708D16846007AF028F8
:1057800007D0012202A9062001F035FC002004B058
:1057900010BDFEF758FFF9E71FB5580704D10122E5
:1057A00002A9104601F027FC002004B010BDFFB58F
:1057B00081B05807400F0026FE4D0A9C012802D0F8
:1057C000022806D002E00520A8702E81002005B036
:1057D000F0BDA878052827D12889A0421BD2F6A0C1
:1057E0000068F64F0090386803F0B2F900280BD03B
:1057F0003868008C800707D4FDF735FAAC216A467B
:105800001170010A51709070288969460A5C0199EB
:10581000401C0A70288180B2A04205D12E810298D6
:10582000012101700320A870012005B0F0BDF8B57A
:105830005A07520F0026E24CDE4D069F012A02D085
:10584000022A45D042E0FDF70EFA0521A970226830
:10585000AC2111702268010A517021688870D74804
:1058600022680168897CD17000682268017C11710E
:10587000017E49070ED5C18A2268090A5171226842
:10588000817D9171818A2268090AD1712268017D26
:1058900011720DE0818A2268090A51712268017D26
:1058A0009171C18A2268090AD1712268817D1172C1
:1058B0002268202151722268022191722168CE72E1
:1058C00021680E732168007E48732E810020F8BD88
:1058D000AA78052A0FD12A89BA4204D223689B5C90
:1058E0000370521C2A8190B2B84204D12E8101204B
:1058F00008700320A8700120F8BD70B45D076D0F1B
:105900000024AF4BAB4E039A012D02D0022D3FD0A5
:105910003BE00220B070FF20348140020168880A19
:1059200085028D4200D0401C8000081AC01C8008EF
:10593000A44980000F2541186D03A8421DD80E7898
:10594000CD7830464E782D06360230438E783604B8
:1059500030432843CD780002000A2D0628439A4D93
:10596000A8420AD10020002A0FD90C181D682479FA
:105970002C54401C9042F8D307E00020002A04D9A0
:1059800019680C54401C9042FAD370BC0020704738
:10599000B578022D0FD13589954204D21B685B5D25
:1059A00003706D1C3581A8B2904204D1348101206E
:1059B00008700320B07070BC0120704770B45D07A0
:1059C0006D0F00247E4B7B4E039A012D02D0022DD9
:1059D00059D055E00220B070FF20348140020168A8
:1059E000880A85028D4200D0401C8000081AC01C25
:1059F0008108744889000F2508186D03A94237D81B
:105A00000678C578314646782D06360231438678C9
:105A1000360431432943C5780902090A2D06294372
:105A2000694DA94224D11A68017C11701A68417C21
:105A300051701A68817C91701A68C17CD1701968A4
:105A4000027A0A711A68417A51711A68817A9171E1
:105A50001A68C17AD1711A68017D11721A68417D84
:105A600051721A68817D91721968C07DC87207E011
:105A70000020002A04D919680C54401C9042FAD323
:105A800070BC00207047B578022D0FD13589954242
:105A900004D21B685B5D03706D1C3581A8B2904217
:105AA00004D13481012008700320B07070BC012043
:105AB0007047F8B55A07520F0026414D3D4F069CDE
:105AC000012A02D0022A36D033E002F09CFF0028DF
:105AD00024D08269C1692B68C0681A702C68130AC7
